{
  "_format": "hh3-artifact-1",
  "contractName": "AuctionFactory",
  "sourceName": "contracts/AuctionFactory.sol",
  "abi": [
    {
      "inputs": [],
      "stateMutability": "nonpayable",
      "type": "constructor"
    },
    {
      "inputs": [],
      "name": "AccessControlBadConfirmation",
      "type": "error"
    },
    {
      "inputs": [
        {
          "internalType": "address",
          "name": "account",
          "type": "address"
        },
        {
          "internalType": "bytes32",
          "name": "neededRole",
          "type": "bytes32"
        }
      ],
      "name": "AccessControlUnauthorizedAccount",
      "type": "error"
    },
    {
      "inputs": [
        {
          "internalType": "address",
          "name": "target",
          "type": "address"
        }
      ],
      "name": "AddressEmptyCode",
      "type": "error"
    },
    {
      "inputs": [
        {
          "internalType": "address",
          "name": "implementation",
          "type": "address"
        }
      ],
      "name": "ERC1967InvalidImplementation",
      "type": "error"
    },
    {
      "inputs": [],
      "name": "ERC1967NonPayable",
      "type": "error"
    },
    {
      "inputs": [],
      "name": "FailedCall",
      "type": "error"
    },
    {
      "inputs": [],
      "name": "InvalidInitialization",
      "type": "error"
    },
    {
      "inputs": [],
      "name": "NotInitializing",
      "type": "error"
    },
    {
      "inputs": [],
      "name": "ReentrancyGuardReentrantCall",
      "type": "error"
    },
    {
      "inputs": [],
      "name": "UUPSUnauthorizedCallContext",
      "type": "error"
    },
    {
      "inputs": [
        {
          "internalType": "bytes32",
          "name": "slot",
          "type": "bytes32"
        }
      ],
      "name": "UUPSUnsupportedProxiableUUID",
      "type": "error"
    },
    {
      "anonymous": false,
      "inputs": [
        {
          "indexed": true,
          "internalType": "address",
          "name": "auction",
          "type": "address"
        },
        {
          "indexed": true,
          "internalType": "address",
          "name": "seller",
          "type": "address"
        },
        {
          "indexed": false,
          "internalType": "address",
          "name": "nftContract",
          "type": "address"
        },
        {
          "indexed": false,
          "internalType": "uint256",
          "name": "tokenId",
          "type": "uint256"
        },
        {
          "indexed": false,
          "internalType": "uint256",
          "name": "startPriceUSD",
          "type": "uint256"
        }
      ],
      "name": "AuctionCreated",
      "type": "event"
    },
    {
      "anonymous": false,
      "inputs": [
        {
          "indexed": true,
          "internalType": "address",
          "name": "token",
          "type": "address"
        },
        {
          "indexed": true,
          "internalType": "address",
          "name": "to",
          "type": "address"
        },
        {
          "indexed": false,
          "internalType": "uint256",
          "name": "amount",
          "type": "uint256"
        }
      ],
      "name": "FeeWithdrawn",
      "type": "event"
    },
    {
      "anonymous": false,
      "inputs": [
        {
          "indexed": true,
          "internalType": "address",
          "name": "newImplementation",
          "type": "address"
        }
      ],
      "name": "ImplementationUpgraded",
      "type": "event"
    },
    {
      "anonymous": false,
      "inputs": [
        {
          "indexed": false,
          "internalType": "uint64",
          "name": "version",
          "type": "uint64"
        }
      ],
      "name": "Initialized",
      "type": "event"
    },
    {
      "anonymous": false,
      "inputs": [
        {
          "indexed": true,
          "internalType": "bytes32",
          "name": "role",
          "type": "bytes32"
        },
        {
          "indexed": true,
          "internalType": "bytes32",
          "name": "previousAdminRole",
          "type": "bytes32"
        },
        {
          "indexed": true,
          "internalType": "bytes32",
          "name": "newAdminRole",
          "type": "bytes32"
        }
      ],
      "name": "RoleAdminChanged",
      "type": "event"
    },
    {
      "anonymous": false,
      "inputs": [
        {
          "indexed": true,
          "internalType": "bytes32",
          "name": "role",
          "type": "bytes32"
        },
        {
          "indexed": true,
          "internalType": "address",
          "name": "account",
          "type": "address"
        },
        {
          "indexed": true,
          "internalType": "address",
          "name": "sender",
          "type": "address"
        }
      ],
      "name": "RoleGranted",
      "type": "event"
    },
    {
      "anonymous": false,
      "inputs": [
        {
          "indexed": true,
          "internalType": "bytes32",
          "name": "role",
          "type": "bytes32"
        },
        {
          "indexed": true,
          "internalType": "address",
          "name": "account",
          "type": "address"
        },
        {
          "indexed": true,
          "internalType": "address",
          "name": "sender",
          "type": "address"
        }
      ],
      "name": "RoleRevoked",
      "type": "event"
    },
    {
      "anonymous": false,
      "inputs": [
        {
          "indexed": true,
          "internalType": "address",
          "name": "implementation",
          "type": "address"
        }
      ],
      "name": "Upgraded",
      "type": "event"
    },
    {
      "inputs": [],
      "name": "DEFAULT_ADMIN_ROLE",
      "outputs": [
        {
          "internalType": "bytes32",
          "name": "",
          "type": "bytes32"
        }
      ],
      "stateMutability": "view",
      "type": "function"
    },
    {
      "inputs": [],
      "name": "OPERATOR_ROLE",
      "outputs": [
        {
          "internalType": "bytes32",
          "name": "",
          "type": "bytes32"
        }
      ],
      "stateMutability": "view",
      "type": "function"
    },
    {
      "inputs": [],
      "name": "UPGRADER_ROLE",
      "outputs": [
        {
          "internalType": "bytes32",
          "name": "",
          "type": "bytes32"
        }
      ],
      "stateMutability": "view",
      "type": "function"
    },
    {
      "inputs": [],
      "name": "UPGRADE_INTERFACE_VERSION",
      "outputs": [
        {
          "internalType": "string",
          "name": "",
          "type": "string"
        }
      ],
      "stateMutability": "view",
      "type": "function"
    },
    {
      "inputs": [
        {
          "internalType": "uint256",
          "name": "",
          "type": "uint256"
        }
      ],
      "name": "allAuctions",
      "outputs": [
        {
          "internalType": "address",
          "name": "",
          "type": "address"
        }
      ],
      "stateMutability": "view",
      "type": "function"
    },
    {
      "inputs": [],
      "name": "auctionImplementation",
      "outputs": [
        {
          "internalType": "address",
          "name": "",
          "type": "address"
        }
      ],
      "stateMutability": "view",
      "type": "function"
    },
    {
      "inputs": [
        {
          "internalType": "address",
          "name": "nftContract",
          "type": "address"
        },
        {
          "internalType": "uint256",
          "name": "tokenId",
          "type": "uint256"
        },
        {
          "internalType": "uint256",
          "name": "startPriceUSD",
          "type": "uint256"
        },
        {
          "internalType": "uint256",
          "name": "startTime",
          "type": "uint256"
        },
        {
          "internalType": "uint256",
          "name": "duration",
          "type": "uint256"
        }
      ],
      "name": "createAuction",
      "outputs": [
        {
          "internalType": "address",
          "name": "",
          "type": "address"
        }
      ],
      "stateMutability": "nonpayable",
      "type": "function"
    },
    {
      "inputs": [
        {
          "internalType": "uint256",
          "name": "auctionId",
          "type": "uint256"
        }
      ],
      "name": "endAuction",
      "outputs": [],
      "stateMutability": "nonpayable",
      "type": "function"
    },
    {
      "inputs": [],
      "name": "feeRate",
      "outputs": [
        {
          "internalType": "uint256",
          "name": "",
          "type": "uint256"
        }
      ],
      "stateMutability": "view",
      "type": "function"
    },
    {
      "inputs": [],
      "name": "feeRecipient",
      "outputs": [
        {
          "internalType": "address",
          "name": "",
          "type": "address"
        }
      ],
      "stateMutability": "view",
      "type": "function"
    },
    {
      "inputs": [],
      "name": "getAllAuctions",
      "outputs": [
        {
          "internalType": "address[]",
          "name": "",
          "type": "address[]"
        }
      ],
      "stateMutability": "view",
      "type": "function"
    },
    {
      "inputs": [
        {
          "internalType": "uint256",
          "name": "auctionIndexId",
          "type": "uint256"
        }
      ],
      "name": "getAuction",
      "outputs": [
        {
          "internalType": "address",
          "name": "",
          "type": "address"
        }
      ],
      "stateMutability": "view",
      "type": "function"
    },
    {
      "inputs": [],
      "name": "getAuctionCount",
      "outputs": [
        {
          "internalType": "uint256",
          "name": "",
          "type": "uint256"
        }
      ],
      "stateMutability": "view",
      "type": "function"
    },
    {
      "inputs": [
        {
          "internalType": "address",
          "name": "nftContract",
          "type": "address"
        },
        {
          "internalType": "uint256",
          "name": "tokenId",
          "type": "uint256"
        }
      ],
      "name": "getAuctionsByNFT",
      "outputs": [
        {
          "internalType": "address[]",
          "name": "",
          "type": "address[]"
        }
      ],
      "stateMutability": "view",
      "type": "function"
    },
    {
      "inputs": [
        {
          "internalType": "bytes32",
          "name": "role",
          "type": "bytes32"
        }
      ],
      "name": "getRoleAdmin",
      "outputs": [
        {
          "internalType": "bytes32",
          "name": "",
          "type": "bytes32"
        }
      ],
      "stateMutability": "view",
      "type": "function"
    },
    {
      "inputs": [
        {
          "internalType": "address",
          "name": "seller",
          "type": "address"
        }
      ],
      "name": "getSellerAuctions",
      "outputs": [
        {
          "internalType": "address[]",
          "name": "",
          "type": "address[]"
        }
      ],
      "stateMutability": "view",
      "type": "function"
    },
    {
      "inputs": [
        {
          "internalType": "bytes32",
          "name": "role",
          "type": "bytes32"
        },
        {
          "internalType": "address",
          "name": "account",
          "type": "address"
        }
      ],
      "name": "grantRole",
      "outputs": [],
      "stateMutability": "nonpayable",
      "type": "function"
    },
    {
      "inputs": [
        {
          "internalType": "bytes32",
          "name": "role",
          "type": "bytes32"
        },
        {
          "internalType": "address",
          "name": "account",
          "type": "address"
        }
      ],
      "name": "hasRole",
      "outputs": [
        {
          "internalType": "bool",
          "name": "",
          "type": "bool"
        }
      ],
      "stateMutability": "view",
      "type": "function"
    },
    {
      "inputs": [
        {
          "internalType": "address",
          "name": "admin",
          "type": "address"
        },
        {
          "internalType": "address",
          "name": "_auctionImplementation",
          "type": "address"
        },
        {
          "internalType": "address",
          "name": "_priceOracle",
          "type": "address"
        }
      ],
      "name": "initialize",
      "outputs": [],
      "stateMutability": "nonpayable",
      "type": "function"
    },
    {
      "inputs": [
        {
          "internalType": "address",
          "name": "",
          "type": "address"
        },
        {
          "internalType": "uint256",
          "name": "",
          "type": "uint256"
        },
        {
          "internalType": "uint256",
          "name": "",
          "type": "uint256"
        }
      ],
      "name": "nftTokenAuctions",
      "outputs": [
        {
          "internalType": "address",
          "name": "",
          "type": "address"
        }
      ],
      "stateMutability": "view",
      "type": "function"
    },
    {
      "inputs": [
        {
          "internalType": "address",
          "name": "",
          "type": "address"
        },
        {
          "internalType": "address",
          "name": "",
          "type": "address"
        },
        {
          "internalType": "uint256",
          "name": "",
          "type": "uint256"
        },
        {
          "internalType": "bytes",
          "name": "",
          "type": "bytes"
        }
      ],
      "name": "onERC721Received",
      "outputs": [
        {
          "internalType": "bytes4",
          "name": "",
          "type": "bytes4"
        }
      ],
      "stateMutability": "pure",
      "type": "function"
    },
    {
      "inputs": [],
      "name": "priceOracle",
      "outputs": [
        {
          "internalType": "contract PriceOracle",
          "name": "",
          "type": "address"
        }
      ],
      "stateMutability": "view",
      "type": "function"
    },
    {
      "inputs": [],
      "name": "proxiableUUID",
      "outputs": [
        {
          "internalType": "bytes32",
          "name": "",
          "type": "bytes32"
        }
      ],
      "stateMutability": "view",
      "type": "function"
    },
    {
      "inputs": [
        {
          "internalType": "bytes32",
          "name": "role",
          "type": "bytes32"
        },
        {
          "internalType": "address",
          "name": "callerConfirmation",
          "type": "address"
        }
      ],
      "name": "renounceRole",
      "outputs": [],
      "stateMutability": "nonpayable",
      "type": "function"
    },
    {
      "inputs": [
        {
          "internalType": "bytes32",
          "name": "role",
          "type": "bytes32"
        },
        {
          "internalType": "address",
          "name": "account",
          "type": "address"
        }
      ],
      "name": "revokeRole",
      "outputs": [],
      "stateMutability": "nonpayable",
      "type": "function"
    },
    {
      "inputs": [
        {
          "internalType": "address",
          "name": "",
          "type": "address"
        },
        {
          "internalType": "uint256",
          "name": "",
          "type": "uint256"
        }
      ],
      "name": "sellerAuctions",
      "outputs": [
        {
          "internalType": "address",
          "name": "",
          "type": "address"
        }
      ],
      "stateMutability": "view",
      "type": "function"
    },
    {
      "inputs": [
        {
          "internalType": "address",
          "name": "token",
          "type": "address"
        },
        {
          "internalType": "address",
          "name": "otherPriceFeed",
          "type": "address"
        }
      ],
      "name": "setAuctionTokenPriceFeed",
      "outputs": [],
      "stateMutability": "nonpayable",
      "type": "function"
    },
    {
      "inputs": [
        {
          "internalType": "uint256",
          "name": "_feeRate",
          "type": "uint256"
        }
      ],
      "name": "setFeeRate",
      "outputs": [],
      "stateMutability": "nonpayable",
      "type": "function"
    },
    {
      "inputs": [
        {
          "internalType": "bytes4",
          "name": "interfaceId",
          "type": "bytes4"
        }
      ],
      "name": "supportsInterface",
      "outputs": [
        {
          "internalType": "bool",
          "name": "",
          "type": "bool"
        }
      ],
      "stateMutability": "view",
      "type": "function"
    },
    {
      "inputs": [
        {
          "internalType": "address",
          "name": "newImplementation",
          "type": "address"
        }
      ],
      "name": "upgradeAuctionImplementation",
      "outputs": [],
      "stateMutability": "nonpayable",
      "type": "function"
    },
    {
      "inputs": [
        {
          "internalType": "address",
          "name": "newImplementation",
          "type": "address"
        },
        {
          "internalType": "bytes",
          "name": "data",
          "type": "bytes"
        }
      ],
      "name": "upgradeToAndCall",
      "outputs": [],
      "stateMutability": "payable",
      "type": "function"
    },
    {
      "inputs": [
        {
          "internalType": "contract IERC20",
          "name": "token",
          "type": "address"
        },
        {
          "internalType": "address",
          "name": "to",
          "type": "address"
        },
        {
          "internalType": "uint256",
          "name": "amount",
          "type": "uint256"
        }
      ],
      "name": "withdrawERC20Fees",
      "outputs": [],
      "stateMutability": "nonpayable",
      "type": "function"
    },
    {
      "inputs": [
        {
          "internalType": "address payable",
          "name": "to",
          "type": "address"
        }
      ],
      "name": "withdrawFees",
      "outputs": [],
      "stateMutability": "nonpayable",
      "type": "function"
    }
  ],
  "bytecode": "0x60a060405230608052348015610013575f5ffd5b5061001c610021565b6100d3565b7ff0c57e16840df040f15088dc2f81fe391c3923bec73e23a9662efc9c229c6a00805468010000000000000000900460ff16156100715760405163f92ee8a960e01b815260040160405180910390fd5b80546001600160401b03908116146100d05780546001600160401b0319166001600160401b0390811782556040519081527fc7f505b2f371ae2175ee4913f4499e1f2633a7b5936321eed1cdaeb6115181d29060200160405180910390a15b50565b6080516126066100f95f395f81816118a1015281816118ca0152611a1a01526126065ff3fe6080604052600436106101e6575f3560e01c806369ce5d8711610108578063ad3cb1cc1161009d578063cbd2bdfd1161006d578063cbd2bdfd146105a2578063d547741f146105b6578063d9c8cf12146105d5578063f5b541a6146105f4578063f72c0d8b14610627575f5ffd5b8063ad3cb1cc14610513578063b9a2de3a14610550578063c0c53b8b1461056f578063c44e66401461058e575f5ffd5b806391d14854116100d857806391d14854146104ad578063961c9ae4146104cc578063978bbdb9146104eb578063a217fddf14610500575f5ffd5b806369ce5d87146104255780636a7f3f6c1461045157806378bd79351461046f578063798cf7711461048e575f5ffd5b806345596e2e1161017e5780635036b0bc1161014e5780635036b0bc146103b457806352d1902d146103d35780635565b9cd146103e757806368d369d814610406575f5ffd5b806345596e2e146103445780634622d37f1461036357806346904840146103825780634f1ef286146103a1575f5ffd5b8063248a9ca3116101b9578063248a9ca3146102ba5780632630c12f146102e75780632f2ff15d1461030657806336568abe14610325575f5ffd5b806301ffc9a7146101ea578063150b7a021461021e578063164e68de14610262578063165c588114610283575b5f5ffd5b3480156101f5575f5ffd5b50610209610204366004611cf4565b610647565b60405190151581526020015b60405180910390f35b348015610229575f5ffd5b50610249610238366004611d2f565b630a85bd0160e11b95945050505050565b6040516001600160e01b03199091168152602001610215565b34801561026d575f5ffd5b5061028161027c366004611dc8565b61067d565b005b34801561028e575f5ffd5b506102a261029d366004611de3565b610816565b6040516001600160a01b039091168152602001610215565b3480156102c5575f5ffd5b506102d96102d4366004611de3565b61083e565b604051908152602001610215565b3480156102f2575f5ffd5b506006546102a2906001600160a01b031681565b348015610311575f5ffd5b50610281610320366004611dfa565b61085e565b348015610330575f5ffd5b5061028161033f366004611dfa565b610880565b34801561034f575f5ffd5b5061028161035e366004611de3565b6108b8565b34801561036e575f5ffd5b506102a261037d366004611e28565b610909565b34801561038d575f5ffd5b506005546102a2906001600160a01b031681565b6102816103af366004611e6e565b610948565b3480156103bf575f5ffd5b506102a26103ce366004611f34565b610963565b3480156103de575f5ffd5b506102d9610997565b3480156103f2575f5ffd5b50610281610401366004611f5e565b6109b2565b348015610411575f5ffd5b50610281610420366004611f8a565b610a23565b348015610430575f5ffd5b5061044461043f366004611dc8565b610c92565b6040516102159190611fc8565b34801561045c575f5ffd5b505f546102a2906001600160a01b031681565b34801561047a575f5ffd5b506102a2610489366004611de3565b610d05565b348015610499575f5ffd5b506102816104a8366004611dc8565b610d85565b3480156104b8575f5ffd5b506102096104c7366004611dfa565b610de4565b3480156104d7575f5ffd5b506102a26104e6366004612013565b610e1a565b3480156104f6575f5ffd5b506102d960045481565b34801561050b575f5ffd5b506102d95f81565b34801561051e575f5ffd5b50610543604051806040016040528060058152602001640352e302e360dc1b81525081565b6040516102159190612081565b34801561055b575f5ffd5b5061028161056a366004611de3565b6113df565b34801561057a575f5ffd5b50610281610589366004612093565b611497565b348015610599575f5ffd5b506001546102d9565b3480156105ad575f5ffd5b5061044461162d565b3480156105c1575f5ffd5b506102816105d0366004611dfa565b61168d565b3480156105e0575f5ffd5b506104446105ef366004611f34565b6116a9565b3480156105ff575f5ffd5b506102d97f97667070c54ef182b0f5858b034beac1b6f3089aa2d3188bb1e8929f4fa9b92981565b348015610632575f5ffd5b506102d95f5160206125515f395f51905f5281565b5f6001600160e01b03198216637965db0b60e01b148061067757506301ffc9a760e01b6001600160e01b03198316145b92915050565b5f61068781611725565b61068f611732565b6001600160a01b0382166106dc5760405162461bcd60e51b815260206004820152600f60248201526e496e76616c6964204164647265737360881b60448201526064015b60405180910390fd5b478061071c5760405162461bcd60e51b815260206004820152600f60248201526e62616c616e6365206973207a65726f60881b60448201526064016106d3565b5f836001600160a01b0316826040515f6040518083038185875af1925050503d805f8114610765576040519150601f19603f3d011682016040523d82523d5f602084013e61076a565b606091505b50509050806107bb5760405162461bcd60e51b815260206004820152601760248201527f42616c616e6365205769746864726177204661696c656400000000000000000060448201526064016106d3565b6040518281526001600160a01b038516905f907eed5939179dc194223f0edd1517ecee2210b22da7f82c8e4b1795e93b9f06aa9060200160405180910390a3505061081260015f5160206125b15f395f51905f5255565b5050565b60018181548110610825575f80fd5b5f918252602090912001546001600160a01b0316905081565b5f9081525f5160206125915f395f51905f52602052604090206001015490565b6108678261083e565b61087081611725565b61087a838361177c565b50505050565b6001600160a01b03811633146108a95760405163334bd91960e11b815260040160405180910390fd5b6108b3828261181d565b505050565b5f6108c281611725565b6103e88211156109035760405162461bcd60e51b815260206004820152600c60248201526b08ccaca40e8dede40d0d2ced60a31b60448201526064016106d3565b50600455565b6003602052825f5260405f20602052815f5260405f20818154811061092c575f80fd5b5f918252602090912001546001600160a01b0316925083915050565b610950611896565b6109598261193c565b6108128282611953565b6002602052815f5260405f20818154811061097c575f80fd5b5f918252602090912001546001600160a01b03169150829050565b5f6109a0611a0f565b505f5160206125715f395f51905f5290565b5f6109bc81611725565b6006546040516333a20bd760e11b81526001600160a01b03858116600483015284811660248301529091169063674417ae906044015f604051808303815f87803b158015610a08575f5ffd5b505af1158015610a1a573d5f5f3e3d5ffd5b50505050505050565b5f610a2d81611725565b610a35611732565b6001600160a01b038316610a7d5760405162461bcd60e51b815260206004820152600f60248201526e496e76616c6964204164647265737360881b60448201526064016106d3565b5f8211610aba5760405162461bcd60e51b815260206004820152600b60248201526a616d6f756e74207a65726f60a81b60448201526064016106d3565b6040516370a0823160e01b81523060048201525f906001600160a01b038616906370a0823190602401602060405180830381865afa158015610afe573d5f5f3e3d5ffd5b505050506040513d601f19601f82011682018060405250810190610b2291906120db565b905082811015610b745760405162461bcd60e51b815260206004820152601a60248201527f696e73756666696369656e7420746f6b656e2062616c616e636500000000000060448201526064016106d3565b60405163a9059cbb60e01b81526001600160a01b038581166004830152602482018590525f919087169063a9059cbb906044016020604051808303815f875af1158015610bc3573d5f5f3e3d5ffd5b505050506040513d601f19601f82011682018060405250810190610be791906120f2565b905080610c2e5760405162461bcd60e51b8152602060048201526015602482015274115490cc8c081d1c985b9cd9995c8819985a5b1959605a1b60448201526064016106d3565b846001600160a01b0316866001600160a01b03167eed5939179dc194223f0edd1517ecee2210b22da7f82c8e4b1795e93b9f06aa86604051610c7291815260200190565b60405180910390a3505061087a60015f5160206125b15f395f51905f5255565b6001600160a01b0381165f90815260026020908152604091829020805483518184028101840190945280845260609392830182828015610cf957602002820191905f5260205f20905b81546001600160a01b03168152600190910190602001808311610cdb575b50505050509050919050565b6001545f908210610d585760405162461bcd60e51b815260206004820152601860248201527f496e76616c69642061756374696f6e20496e646578204944000000000000000060448201526064016106d3565b60018281548110610d6b57610d6b612111565b5f918252602090912001546001600160a01b031692915050565b5f5160206125515f395f51905f52610d9c81611725565b5f80546001600160a01b0319166001600160a01b038416908117825560405190917f51ea6ffdc9909d5ca341259f7221902e0676585d833e2bb21fa923c85e86288691a25050565b5f9182525f5160206125915f395f51905f52602090815260408084206001600160a01b0393909316845291905290205460ff1690565b5f6001600160a01b038616610e715760405162461bcd60e51b815260206004820152601c60248201527f496e76616c6964204e465420636f6e747261637420616464726573730000000060448201526064016106d3565b6040516331a9108f60e11b8152600481018690525f906001600160a01b03881690636352211e90602401602060405180830381865afa158015610eb6573d5f5f3e3d5ffd5b505050506040513d601f19601f82011682018060405250810190610eda9190612125565b90506001600160a01b0381163314610f3e5760405162461bcd60e51b815260206004820152602160248201527f596f7520617265206e6f7420746865206f776e6572206f662074686973204e466044820152601560fa1b60648201526084016106d3565b60405163e985e9c560e01b81523360048201523060248201525f906001600160a01b0389169063e985e9c590604401602060405180830381865afa158015610f88573d5f5f3e3d5ffd5b505050506040513d601f19601f82011682018060405250810190610fac91906120f2565b60405163020604bf60e21b8152600481018990529091505f9030906001600160a01b038b169063081812fc90602401602060405180830381865afa158015610ff6573d5f5f3e3d5ffd5b505050506040513d601f19601f8201168201806040525081019061101a9190612125565b6001600160a01b0316149050818061102f5750805b61107b5760405162461bcd60e51b815260206004820152601d60248201527f4e4654206e6f7420617070726f76656420666f72207472616e7366657200000060448201526064016106d3565b604051632142170760e11b81526001600160a01b038481166004830152306024830152604482018a90528a16906342842e0e906064015f604051808303815f87803b1580156110c8575f5ffd5b505af11580156110da573d5f5f3e3d5ffd5b505050505f5f5f9054906101000a90046001600160a01b0316635f34992a60e01b858c8c8c8c8c6004543060065f9054906101000a90046001600160a01b031660405160240161117b999897969594939291906001600160a01b03998a168152978916602089015260408801969096526060870194909452608086019290925260a085015260c0840152831660e08301529091166101008201526101200190565b60408051601f198184030181529181526020820180516001600160e01b03166001600160e01b03199094169390931790925290516111b890611ce7565b6111c3929190612140565b604051809103905ff0801580156111dc573d5f5f3e3d5ffd5b50604051632142170760e11b81523060048201526001600160a01b038083166024830152604482018c9052919250908b16906342842e0e906064015f604051808303815f87803b15801561122e575f5ffd5b505af1158015611240573d5f5f3e3d5ffd5b50505050600181908060018154018082558091505060019003905f5260205f20015f9091909190916101000a8154816001600160a01b0302191690836001600160a01b0316021790555060025f856001600160a01b03166001600160a01b031681526020019081526020015f2081908060018154018082558091505060019003905f5260205f20015f9091909190916101000a8154816001600160a01b0302191690836001600160a01b0316021790555060035f8b6001600160a01b03166001600160a01b031681526020019081526020015f205f8a81526020019081526020015f2081908060018154018082558091505060019003905f5260205f20015f9091909190916101000a8154816001600160a01b0302191690836001600160a01b03160217905550836001600160a01b0316816001600160a01b03167f485e5dc95b448afd0af81830085b2d5a36c7c861e3608ed70dad9158ab3ad4b08c8c8c6040516113ca939291906001600160a01b039390931683526020830191909152604082015260600190565b60405180910390a39998505050505050505050565b60015481106114255760405162461bcd60e51b8152602060048201526012602482015271125b9d985b1a5908185d58dd1a5bdb88125160721b60448201526064016106d3565b6001818154811061143857611438612111565b5f9182526020822001546040805163fe67a54b60e01b815290516001600160a01b039092169263fe67a54b9260048084019382900301818387803b15801561147e575f5ffd5b505af1158015611490573d5f5f3e3d5ffd5b5050505050565b5f6114a0611a58565b805490915060ff600160401b820416159067ffffffffffffffff165f811580156114c75750825b90505f8267ffffffffffffffff1660011480156114e35750303b155b9050811580156114f1575080155b1561150f5760405163f92ee8a960e01b815260040160405180910390fd5b845467ffffffffffffffff19166001178555831561153957845460ff60401b1916600160401b1785555b611541611a80565b611549611a80565b611551611a88565b61155b5f8961177c565b506115735f5160206125515f395f51905f528961177c565b5061159e7f97667070c54ef182b0f5858b034beac1b6f3089aa2d3188bb1e8929f4fa9b9298961177c565b5060fa60045560058054336001600160a01b0319918216179091555f805482166001600160a01b038a81169190911790915560068054909216908816179055831561162357845460ff60401b19168555604051600181527fc7f505b2f371ae2175ee4913f4499e1f2633a7b5936321eed1cdaeb6115181d29060200160405180910390a15b5050505050505050565b6060600180548060200260200160405190810160405280929190818152602001828054801561168357602002820191905f5260205f20905b81546001600160a01b03168152600190910190602001808311611665575b5050505050905090565b6116968261083e565b61169f81611725565b61087a838361181d565b6001600160a01b0382165f90815260036020908152604080832084845282529182902080548351818402810184019094528084526060939283018282801561171857602002820191905f5260205f20905b81546001600160a01b031681526001909101906020018083116116fa575b5050505050905092915050565b61172f8133611a98565b50565b5f5160206125b15f395f51905f5280546001190161176357604051633ee5aeb560e01b815260040160405180910390fd5b60029055565b60015f5160206125b15f395f51905f5255565b5f5f5160206125915f395f51905f526117958484610de4565b611814575f848152602082815260408083206001600160a01b03871684529091529020805460ff191660011790556117ca3390565b6001600160a01b0316836001600160a01b0316857f2f8788117e7eff1d82e926ec794901d17c78024a50270940304540a733656f0d60405160405180910390a46001915050610677565b5f915050610677565b5f5f5160206125915f395f51905f526118368484610de4565b15611814575f848152602082815260408083206001600160a01b0387168085529252808320805460ff1916905551339287917ff6391f5c32d9c69d2a47ea670b442974b53935d1edc7fd64eb21e047a839171b9190a46001915050610677565b306001600160a01b037f000000000000000000000000000000000000000000000000000000000000000016148061191c57507f00000000000000000000000000000000000000000000000000000000000000006001600160a01b03166119105f5160206125715f395f51905f52546001600160a01b031690565b6001600160a01b031614155b1561193a5760405163703e46dd60e11b815260040160405180910390fd5b565b5f5160206125515f395f51905f5261081281611725565b816001600160a01b03166352d1902d6040518163ffffffff1660e01b8152600401602060405180830381865afa9250505080156119ad575060408051601f3d908101601f191682019092526119aa918101906120db565b60015b6119d557604051634c9c8ce360e01b81526001600160a01b03831660048201526024016106d3565b5f5160206125715f395f51905f528114611a0557604051632a87526960e21b8152600481018290526024016106d3565b6108b38383611ad1565b306001600160a01b037f0000000000000000000000000000000000000000000000000000000000000000161461193a5760405163703e46dd60e11b815260040160405180910390fd5b5f807ff0c57e16840df040f15088dc2f81fe391c3923bec73e23a9662efc9c229c6a00610677565b61193a611b26565b611a90611b26565b61193a611b4b565b611aa28282610de4565b6108125760405163e2517d3f60e01b81526001600160a01b0382166004820152602481018390526044016106d3565b611ada82611b53565b6040516001600160a01b038316907fbc7cd75a20ee27fd9adebab32041f755214dbc6bffa90cc0225b39da2e5c2d3b905f90a2805115611b1e576108b38282611bb6565b610812611c28565b611b2e611c47565b61193a57604051631afcd79f60e31b815260040160405180910390fd5b611769611b26565b806001600160a01b03163b5f03611b8857604051634c9c8ce360e01b81526001600160a01b03821660048201526024016106d3565b5f5160206125715f395f51905f5280546001600160a01b0319166001600160a01b0392909216919091179055565b60605f5f846001600160a01b031684604051611bd2919061216b565b5f60405180830381855af49150503d805f8114611c0a576040519150601f19603f3d011682016040523d82523d5f602084013e611c0f565b606091505b5091509150611c1f858383611c60565b95945050505050565b341561193a5760405163b398979f60e01b815260040160405180910390fd5b5f611c50611a58565b54600160401b900460ff16919050565b606082611c7557611c7082611cbf565b611cb8565b8151158015611c8c57506001600160a01b0384163b155b15611cb557604051639996b31560e01b81526001600160a01b03851660048201526024016106d3565b50805b9392505050565b805115611cce57805160208201fd5b60405163d6bda27560e01b815260040160405180910390fd5b6103cf8061218283390190565b5f60208284031215611d04575f5ffd5b81356001600160e01b031981168114611cb8575f5ffd5b6001600160a01b038116811461172f575f5ffd5b5f5f5f5f5f60808688031215611d43575f5ffd5b8535611d4e81611d1b565b94506020860135611d5e81611d1b565b935060408601359250606086013567ffffffffffffffff811115611d80575f5ffd5b8601601f81018813611d90575f5ffd5b803567ffffffffffffffff811115611da6575f5ffd5b886020828401011115611db7575f5ffd5b959894975092955050506020019190565b5f60208284031215611dd8575f5ffd5b8135611cb881611d1b565b5f60208284031215611df3575f5ffd5b5035919050565b5f5f60408385031215611e0b575f5ffd5b823591506020830135611e1d81611d1b565b809150509250929050565b5f5f5f60608486031215611e3a575f5ffd5b8335611e4581611d1b565b95602085013595506040909401359392505050565b634e487b7160e01b5f52604160045260245ffd5b5f5f60408385031215611e7f575f5ffd5b8235611e8a81611d1b565b9150602083013567ffffffffffffffff811115611ea5575f5ffd5b8301601f81018513611eb5575f5ffd5b803567ffffffffffffffff811115611ecf57611ecf611e5a565b604051601f8201601f19908116603f0116810167ffffffffffffffff81118282101715611efe57611efe611e5a565b604052818152828201602001871015611f15575f5ffd5b816020840160208301375f602083830101528093505050509250929050565b5f5f60408385031215611f45575f5ffd5b8235611f5081611d1b565b946020939093013593505050565b5f5f60408385031215611f6f575f5ffd5b8235611f7a81611d1b565b91506020830135611e1d81611d1b565b5f5f5f60608486031215611f9c575f5ffd5b8335611fa781611d1b565b92506020840135611fb781611d1b565b929592945050506040919091013590565b602080825282518282018190525f918401906040840190835b818110156120085783516001600160a01b0316835260209384019390920191600101611fe1565b509095945050505050565b5f5f5f5f5f60a08688031215612027575f5ffd5b853561203281611d1b565b97602087013597506040870135966060810135965060800135945092505050565b5f81518084528060208401602086015e5f602082860101526020601f19601f83011685010191505092915050565b602081525f611cb86020830184612053565b5f5f5f606084860312156120a5575f5ffd5b83356120b081611d1b565b925060208401356120c081611d1b565b915060408401356120d081611d1b565b809150509250925092565b5f602082840312156120eb575f5ffd5b5051919050565b5f60208284031215612102575f5ffd5b81518015158114611cb8575f5ffd5b634e487b7160e01b5f52603260045260245ffd5b5f60208284031215612135575f5ffd5b8151611cb881611d1b565b6001600160a01b03831681526040602082018190525f9061216390830184612053565b949350505050565b5f82518060208501845e5f92019182525091905056fe60806040526040516103cf3803806103cf8339810160408190526100229161023b565b61002c8282610033565b5050610320565b61003c82610091565b6040516001600160a01b038316907fbc7cd75a20ee27fd9adebab32041f755214dbc6bffa90cc0225b39da2e5c2d3b905f90a280511561008557610080828261010c565b505050565b61008d61017f565b5050565b806001600160a01b03163b5f036100cb57604051634c9c8ce360e01b81526001600160a01b03821660048201526024015b60405180910390fd5b7f360894a13ba1a3210667c828492db98dca3e2076cc3735a920a3ca505d382bbc80546001600160a01b0319166001600160a01b0392909216919091179055565b60605f5f846001600160a01b031684604051610128919061030a565b5f60405180830381855af49150503d805f8114610160576040519150601f19603f3d011682016040523d82523d5f602084013e610165565b606091505b5090925090506101768583836101a0565b95945050505050565b341561019e5760405163b398979f60e01b815260040160405180910390fd5b565b6060826101b5576101b0826101ff565b6101f8565b81511580156101cc57506001600160a01b0384163b155b156101f557604051639996b31560e01b81526001600160a01b03851660048201526024016100c2565b50805b9392505050565b80511561020e57805160208201fd5b60405163d6bda27560e01b815260040160405180910390fd5b634e487b7160e01b5f52604160045260245ffd5b5f5f6040838503121561024c575f5ffd5b82516001600160a01b0381168114610262575f5ffd5b60208401519092506001600160401b0381111561027d575f5ffd5b8301601f8101851361028d575f5ffd5b80516001600160401b038111156102a6576102a6610227565b604051601f8201601f19908116603f011681016001600160401b03811182821017156102d4576102d4610227565b6040528181528282016020018710156102eb575f5ffd5b8160208401602083015e5f602083830101528093505050509250929050565b5f82518060208501845e5f920191825250919050565b60a38061032c5f395ff3fe6080604052600a600c565b005b60186014601a565b6050565b565b5f604b7f360894a13ba1a3210667c828492db98dca3e2076cc3735a920a3ca505d382bbc546001600160a01b031690565b905090565b365f5f375f5f365f845af43d5f5f3e8080156069573d5ff35b3d5ffdfea2646970667358221220cf68ba1658cfa02775a9dfdd1ad7f9d3bfb2ed8986c9e2b7de614de48521d0f064736f6c634300081c0033189ab7a9244df0848122154315af71fe140f3db0fe014031783b0946b8c9d2e3360894a13ba1a3210667c828492db98dca3e2076cc3735a920a3ca505d382bbc02dd7bc7dec4dceedda775e58dd541e08a116c6c53815c0bd028192f7b6268009b779b17422d0df92223018b32b4d1fa46e071723d6817e2486d003becc55f00a264697066735822122052a1272f69290fb4e890bcca25af002aca4e76901d199a3190ce04d7c206c79a64736f6c634300081c0033",
  "linkReferences": {},
  "deployedLinkReferences": {},
  "immutableReferences": {
    "893": [
      {
        "length": 32,
        "start": 6305
      },
      {
        "length": 32,
        "start": 6346
      },
      {
        "length": 32,
        "start": 6682
      }
    ]
  },
  "inputSourceName": "project/contracts/AuctionFactory.sol",
  "buildInfoId": "solc-0_8_28-9728a7636eedd737dcc0d68bddacef703621a9bd"
}