{
  "_format": "hh3-artifact-1",
  "contractName": "MajtDutchNFT",
  "sourceName": "contracts/MajtDutchNFT.sol",
  "abi": [
    {
      "inputs": [
        {
          "internalType": "string",
          "name": "name",
          "type": "string"
        },
        {
          "internalType": "string",
          "name": "symbol",
          "type": "string"
        }
      ],
      "stateMutability": "nonpayable",
      "type": "constructor"
    },
    {
      "inputs": [
        {
          "internalType": "address",
          "name": "sender",
          "type": "address"
        },
        {
          "internalType": "uint256",
          "name": "tokenId",
          "type": "uint256"
        },
        {
          "internalType": "address",
          "name": "owner",
          "type": "address"
        }
      ],
      "name": "ERC721IncorrectOwner",
      "type": "error"
    },
    {
      "inputs": [
        {
          "internalType": "address",
          "name": "operator",
          "type": "address"
        },
        {
          "internalType": "uint256",
          "name": "tokenId",
          "type": "uint256"
        }
      ],
      "name": "ERC721InsufficientApproval",
      "type": "error"
    },
    {
      "inputs": [
        {
          "internalType": "address",
          "name": "approver",
          "type": "address"
        }
      ],
      "name": "ERC721InvalidApprover",
      "type": "error"
    },
    {
      "inputs": [
        {
          "internalType": "address",
          "name": "operator",
          "type": "address"
        }
      ],
      "name": "ERC721InvalidOperator",
      "type": "error"
    },
    {
      "inputs": [
        {
          "internalType": "address",
          "name": "owner",
          "type": "address"
        }
      ],
      "name": "ERC721InvalidOwner",
      "type": "error"
    },
    {
      "inputs": [
        {
          "internalType": "address",
          "name": "receiver",
          "type": "address"
        }
      ],
      "name": "ERC721InvalidReceiver",
      "type": "error"
    },
    {
      "inputs": [
        {
          "internalType": "address",
          "name": "sender",
          "type": "address"
        }
      ],
      "name": "ERC721InvalidSender",
      "type": "error"
    },
    {
      "inputs": [
        {
          "internalType": "uint256",
          "name": "tokenId",
          "type": "uint256"
        }
      ],
      "name": "ERC721NonexistentToken",
      "type": "error"
    },
    {
      "inputs": [
        {
          "internalType": "address",
          "name": "owner",
          "type": "address"
        }
      ],
      "name": "OwnableInvalidOwner",
      "type": "error"
    },
    {
      "inputs": [
        {
          "internalType": "address",
          "name": "account",
          "type": "address"
        }
      ],
      "name": "OwnableUnauthorizedAccount",
      "type": "error"
    },
    {
      "anonymous": false,
      "inputs": [
        {
          "indexed": true,
          "internalType": "address",
          "name": "owner",
          "type": "address"
        },
        {
          "indexed": true,
          "internalType": "address",
          "name": "approved",
          "type": "address"
        },
        {
          "indexed": true,
          "internalType": "uint256",
          "name": "tokenId",
          "type": "uint256"
        }
      ],
      "name": "Approval",
      "type": "event"
    },
    {
      "anonymous": false,
      "inputs": [
        {
          "indexed": true,
          "internalType": "address",
          "name": "owner",
          "type": "address"
        },
        {
          "indexed": true,
          "internalType": "address",
          "name": "operator",
          "type": "address"
        },
        {
          "indexed": false,
          "internalType": "bool",
          "name": "approved",
          "type": "bool"
        }
      ],
      "name": "ApprovalForAll",
      "type": "event"
    },
    {
      "anonymous": false,
      "inputs": [
        {
          "indexed": false,
          "internalType": "uint256",
          "name": "_fromTokenId",
          "type": "uint256"
        },
        {
          "indexed": false,
          "internalType": "uint256",
          "name": "_toTokenId",
          "type": "uint256"
        }
      ],
      "name": "BatchMetadataUpdate",
      "type": "event"
    },
    {
      "anonymous": false,
      "inputs": [
        {
          "indexed": false,
          "internalType": "uint256",
          "name": "_tokenId",
          "type": "uint256"
        }
      ],
      "name": "MetadataUpdate",
      "type": "event"
    },
    {
      "anonymous": false,
      "inputs": [
        {
          "indexed": true,
          "internalType": "address",
          "name": "previousOwner",
          "type": "address"
        },
        {
          "indexed": true,
          "internalType": "address",
          "name": "newOwner",
          "type": "address"
        }
      ],
      "name": "OwnershipTransferred",
      "type": "event"
    },
    {
      "anonymous": false,
      "inputs": [
        {
          "indexed": true,
          "internalType": "address",
          "name": "from",
          "type": "address"
        },
        {
          "indexed": true,
          "internalType": "address",
          "name": "to",
          "type": "address"
        },
        {
          "indexed": true,
          "internalType": "uint256",
          "name": "tokenId",
          "type": "uint256"
        }
      ],
      "name": "Transfer",
      "type": "event"
    },
    {
      "inputs": [
        {
          "internalType": "address",
          "name": "to",
          "type": "address"
        },
        {
          "internalType": "uint256",
          "name": "tokenId",
          "type": "uint256"
        }
      ],
      "name": "approve",
      "outputs": [],
      "stateMutability": "nonpayable",
      "type": "function"
    },
    {
      "inputs": [
        {
          "internalType": "address",
          "name": "owner",
          "type": "address"
        }
      ],
      "name": "balanceOf",
      "outputs": [
        {
          "internalType": "uint256",
          "name": "",
          "type": "uint256"
        }
      ],
      "stateMutability": "view",
      "type": "function"
    },
    {
      "inputs": [
        {
          "internalType": "uint256",
          "name": "tokenId",
          "type": "uint256"
        }
      ],
      "name": "getApproved",
      "outputs": [
        {
          "internalType": "address",
          "name": "",
          "type": "address"
        }
      ],
      "stateMutability": "view",
      "type": "function"
    },
    {
      "inputs": [
        {
          "internalType": "address",
          "name": "owner",
          "type": "address"
        },
        {
          "internalType": "address",
          "name": "operator",
          "type": "address"
        }
      ],
      "name": "isApprovedForAll",
      "outputs": [
        {
          "internalType": "bool",
          "name": "",
          "type": "bool"
        }
      ],
      "stateMutability": "view",
      "type": "function"
    },
    {
      "inputs": [],
      "name": "name",
      "outputs": [
        {
          "internalType": "string",
          "name": "",
          "type": "string"
        }
      ],
      "stateMutability": "view",
      "type": "function"
    },
    {
      "inputs": [],
      "name": "owner",
      "outputs": [
        {
          "internalType": "address",
          "name": "",
          "type": "address"
        }
      ],
      "stateMutability": "view",
      "type": "function"
    },
    {
      "inputs": [
        {
          "internalType": "uint256",
          "name": "tokenId",
          "type": "uint256"
        }
      ],
      "name": "ownerOf",
      "outputs": [
        {
          "internalType": "address",
          "name": "",
          "type": "address"
        }
      ],
      "stateMutability": "view",
      "type": "function"
    },
    {
      "inputs": [],
      "name": "renounceOwnership",
      "outputs": [],
      "stateMutability": "nonpayable",
      "type": "function"
    },
    {
      "inputs": [
        {
          "internalType": "address",
          "name": "recipient",
          "type": "address"
        },
        {
          "internalType": "string",
          "name": "tokenUriId",
          "type": "string"
        }
      ],
      "name": "safeMint",
      "outputs": [
        {
          "internalType": "uint256",
          "name": "",
          "type": "uint256"
        }
      ],
      "stateMutability": "nonpayable",
      "type": "function"
    },
    {
      "inputs": [
        {
          "internalType": "address",
          "name": "from",
          "type": "address"
        },
        {
          "internalType": "address",
          "name": "to",
          "type": "address"
        },
        {
          "internalType": "uint256",
          "name": "tokenId",
          "type": "uint256"
        }
      ],
      "name": "safeTransferFrom",
      "outputs": [],
      "stateMutability": "nonpayable",
      "type": "function"
    },
    {
      "inputs": [
        {
          "internalType": "address",
          "name": "from",
          "type": "address"
        },
        {
          "internalType": "address",
          "name": "to",
          "type": "address"
        },
        {
          "internalType": "uint256",
          "name": "tokenId",
          "type": "uint256"
        },
        {
          "internalType": "bytes",
          "name": "data",
          "type": "bytes"
        }
      ],
      "name": "safeTransferFrom",
      "outputs": [],
      "stateMutability": "nonpayable",
      "type": "function"
    },
    {
      "inputs": [
        {
          "internalType": "address",
          "name": "operator",
          "type": "address"
        },
        {
          "internalType": "bool",
          "name": "approved",
          "type": "bool"
        }
      ],
      "name": "setApprovalForAll",
      "outputs": [],
      "stateMutability": "nonpayable",
      "type": "function"
    },
    {
      "inputs": [
        {
          "internalType": "bytes4",
          "name": "interfaceId",
          "type": "bytes4"
        }
      ],
      "name": "supportsInterface",
      "outputs": [
        {
          "internalType": "bool",
          "name": "",
          "type": "bool"
        }
      ],
      "stateMutability": "view",
      "type": "function"
    },
    {
      "inputs": [],
      "name": "symbol",
      "outputs": [
        {
          "internalType": "string",
          "name": "",
          "type": "string"
        }
      ],
      "stateMutability": "view",
      "type": "function"
    },
    {
      "inputs": [],
      "name": "tokenIdCounter",
      "outputs": [
        {
          "internalType": "uint256",
          "name": "",
          "type": "uint256"
        }
      ],
      "stateMutability": "view",
      "type": "function"
    },
    {
      "inputs": [
        {
          "internalType": "uint256",
          "name": "tokenId",
          "type": "uint256"
        }
      ],
      "name": "tokenURI",
      "outputs": [
        {
          "internalType": "string",
          "name": "",
          "type": "string"
        }
      ],
      "stateMutability": "view",
      "type": "function"
    },
    {
      "inputs": [
        {
          "internalType": "address",
          "name": "from",
          "type": "address"
        },
        {
          "internalType": "address",
          "name": "to",
          "type": "address"
        },
        {
          "internalType": "uint256",
          "name": "tokenId",
          "type": "uint256"
        }
      ],
      "name": "transferFrom",
      "outputs": [],
      "stateMutability": "nonpayable",
      "type": "function"
    },
    {
      "inputs": [
        {
          "internalType": "address",
          "name": "newOwner",
          "type": "address"
        }
      ],
      "name": "transferOwnership",
      "outputs": [],
      "stateMutability": "nonpayable",
      "type": "function"
    }
  ],
  "bytecode": "0x608060405234801561000f575f5ffd5b5060405161181a38038061181a83398101604081905261002e916101e3565b3382825f61003c83826102cc565b50600161004982826102cc565b5050506001600160a01b03811661007a57604051631e4fbdf760e01b81525f60048201526024015b60405180910390fd5b610083816100f5565b505f825111801561009457505f8151115b6100ee5760405162461bcd60e51b815260206004820152602560248201527f546f6b656e206e616d6520616e642073796d626f6c206e6f7420616c6c6f7720604482015264656d70747960d81b6064820152608401610071565b5050610386565b600780546001600160a01b038381166001600160a01b0319831681179093556040519116919082907f8be0079c531659141344cd1fd0a4f28419497f9722a3daafe3b4186f6b6457e0905f90a35050565b634e487b7160e01b5f52604160045260245ffd5b5f82601f830112610169575f5ffd5b81516001600160401b0381111561018257610182610146565b604051601f8201601f19908116603f011681016001600160401b03811182821017156101b0576101b0610146565b6040528181528382016020018510156101c7575f5ffd5b8160208501602083015e5f918101602001919091529392505050565b5f5f604083850312156101f4575f5ffd5b82516001600160401b03811115610209575f5ffd5b6102158582860161015a565b602085015190935090506001600160401b03811115610232575f5ffd5b61023e8582860161015a565b9150509250929050565b600181811c9082168061025c57607f821691505b60208210810361027a57634e487b7160e01b5f52602260045260245ffd5b50919050565b601f8211156102c757805f5260205f20601f840160051c810160208510156102a55750805b601f840160051c820191505b818110156102c4575f81556001016102b1565b50505b505050565b81516001600160401b038111156102e5576102e5610146565b6102f9816102f38454610248565b84610280565b6020601f82116001811461032b575f83156103145750848201515b5f19600385901b1c1916600184901b1784556102c4565b5f84815260208120601f198516915b8281101561035a578785015182556020948501946001909201910161033a565b508482101561037757868401515f19600387901b60f8161c191681555b50505050600190811b01905550565b611487806103935f395ff3fe608060405234801561000f575f5ffd5b5060043610610111575f3560e01c80638da5cb5b1161009e578063b88d4fde1161006e578063b88d4fde14610229578063c87b56dd1461023c578063d204c45e1461024f578063e985e9c514610262578063f2fde38b14610275575f5ffd5b80638da5cb5b146101f457806395d89b411461020557806398bdf6f51461020d578063a22cb46514610216575f5ffd5b806323b872dd116100e457806323b872dd1461019257806342842e0e146101a55780636352211e146101b857806370a08231146101cb578063715018a6146101ec575f5ffd5b806301ffc9a71461011557806306fdde031461013d578063081812fc14610152578063095ea7b31461017d575b5f5ffd5b610128610123366004610f6c565b610288565b60405190151581526020015b60405180910390f35b6101456102b2565b6040516101349190610fb5565b610165610160366004610fc7565b610341565b6040516001600160a01b039091168152602001610134565b61019061018b366004610ff9565b610368565b005b6101906101a0366004611021565b610377565b6101906101b3366004611021565b610405565b6101656101c6366004610fc7565b610424565b6101de6101d936600461105b565b61042e565b604051908152602001610134565b610190610473565b6007546001600160a01b0316610165565b610145610486565b6101de60085481565b610190610224366004611074565b610495565b610190610237366004611138565b6104a0565b61014561024a366004610fc7565b6104b8565b6101de61025d3660046111af565b6105b7565b61012861027036600461120d565b61068f565b61019061028336600461105b565b6106bc565b5f6001600160e01b03198216632483248360e11b14806102ac57506102ac826106f9565b92915050565b60605f80546102c09061123e565b80601f01602080910402602001604051908101604052809291908181526020018280546102ec9061123e565b80156103375780601f1061030e57610100808354040283529160200191610337565b820191905f5260205f20905b81548152906001019060200180831161031a57829003601f168201915b5050505050905090565b5f61034b82610748565b505f828152600460205260409020546001600160a01b03166102ac565b610373828233610780565b5050565b6001600160a01b0382166103a557604051633250574960e11b81525f60048201526024015b60405180910390fd5b5f6103b183833361078d565b9050836001600160a01b0316816001600160a01b0316146103ff576040516364283d7b60e01b81526001600160a01b038086166004830152602482018490528216604482015260640161039c565b50505050565b61041f83838360405180602001604052805f8152506104a0565b505050565b5f6102ac82610748565b5f6001600160a01b038216610458576040516322718ad960e21b81525f600482015260240161039c565b506001600160a01b03165f9081526003602052604090205490565b61047b61087f565b6104845f6108ac565b565b6060600180546102c09061123e565b6103733383836108fd565b6104ab848484610377565b6103ff338585858561099b565b60606104c382610748565b505f82815260066020526040812080546104dc9061123e565b80601f01602080910402602001604051908101604052809291908181526020018280546105089061123e565b80156105535780601f1061052a57610100808354040283529160200191610553565b820191905f5260205f20905b81548152906001019060200180831161053657829003601f168201915b505050505090505f610563610ac3565b905080515f03610574575092915050565b8151156105a657808260405160200161058e92919061128d565b60405160208183030381529060405292505050919050565b6105af84610ae3565b949350505050565b5f6105c061087f565b6001600160a01b0383166106165760405162461bcd60e51b815260206004820181905260248201527f526563697069656e742063616e6e6f74206265207a65726f2061646472657373604482015260640161039c565b5f82511161065e5760405162461bcd60e51b8152602060048201526015602482015274151bdad95b88155492481259081c995c5d5a5c9959605a1b604482015260640161039c565b600880545f918261066e836112a1565b91905055905061067e8482610b47565b6106888184610b60565b9392505050565b6001600160a01b039182165f90815260056020908152604080832093909416825291909152205460ff1690565b6106c461087f565b6001600160a01b0381166106ed57604051631e4fbdf760e01b81525f600482015260240161039c565b6106f6816108ac565b50565b5f6001600160e01b031982166380ac58cd60e01b148061072957506001600160e01b03198216635b5e139f60e01b145b806102ac57506301ffc9a760e01b6001600160e01b03198316146102ac565b5f818152600260205260408120546001600160a01b0316806102ac57604051637e27328960e01b81526004810184905260240161039c565b61041f8383836001610baf565b5f828152600260205260408120546001600160a01b03908116908316156107b9576107b9818486610cb3565b6001600160a01b038116156107f3576107d45f855f5f610baf565b6001600160a01b0381165f90815260036020526040902080545f190190555b6001600160a01b03851615610821576001600160a01b0385165f908152600360205260409020805460010190555b5f8481526002602052604080822080546001600160a01b0319166001600160a01b0389811691821790925591518793918516917fddf252ad1be2c89b69c2b068fc378daa952ba7f163c4a11628f55a4df523b3ef91a4949350505050565b6007546001600160a01b031633146104845760405163118cdaa760e01b815233600482015260240161039c565b600780546001600160a01b038381166001600160a01b0319831681179093556040519116919082907f8be0079c531659141344cd1fd0a4f28419497f9722a3daafe3b4186f6b6457e0905f90a35050565b6001600160a01b03821661092f57604051630b61174360e31b81526001600160a01b038316600482015260240161039c565b6001600160a01b038381165f81815260056020908152604080832094871680845294825291829020805460ff191686151590811790915591519182527f17307eab39ab6107e8899845ad3d59bd9653f200f220920489ca2b5937696c31910160405180910390a3505050565b6001600160a01b0383163b15610abc57604051630a85bd0160e11b81526001600160a01b0384169063150b7a02906109dd9088908890879087906004016112c5565b6020604051808303815f875af1925050508015610a17575060408051601f3d908101601f19168201909252610a1491810190611301565b60015b610a7e573d808015610a44576040519150601f19603f3d011682016040523d82523d5f602084013e610a49565b606091505b5080515f03610a7657604051633250574960e11b81526001600160a01b038516600482015260240161039c565b805160208201fd5b6001600160e01b03198116630a85bd0160e11b14610aba57604051633250574960e11b81526001600160a01b038516600482015260240161039c565b505b5050505050565b606060405180606001604052806036815260200161141c60369139905090565b6060610aee82610748565b505f610af8610ac3565b90505f815111610b165760405180602001604052805f815250610688565b80610b2084610d17565b604051602001610b3192919061128d565b6040516020818303038152906040529392505050565b610373828260405180602001604052805f815250610da7565b5f828152600660205260409020610b778282611360565b506040518281527ff8e1a15aba9398e019f0b49df1a4fde98ee17ae345cb5f6b5e2c27f5033e8ce79060200160405180910390a15050565b8080610bc357506001600160a01b03821615155b15610c84575f610bd284610748565b90506001600160a01b03831615801590610bfe5750826001600160a01b0316816001600160a01b031614155b8015610c115750610c0f818461068f565b155b15610c3a5760405163a9fbf51f60e01b81526001600160a01b038416600482015260240161039c565b8115610c825783856001600160a01b0316826001600160a01b03167f8c5be1e5ebec7d5bd14f71427d1e84f3dd0314c0f7b2291e5b200ac8c7c3b92560405160405180910390a45b505b50505f90815260046020526040902080546001600160a01b0319166001600160a01b0392909216919091179055565b610cbe838383610dbe565b61041f576001600160a01b038316610cec57604051637e27328960e01b81526004810182905260240161039c565b60405163177e802f60e01b81526001600160a01b03831660048201526024810182905260440161039c565b60605f610d2383610e1f565b60010190505f8167ffffffffffffffff811115610d4257610d426110ad565b6040519080825280601f01601f191660200182016040528015610d6c576020820181803683370190505b5090508181016020015b5f19016f181899199a1a9b1b9c1cb0b131b232b360811b600a86061a8153600a8504945084610d7657509392505050565b610db18383610ef6565b61041f335f85858561099b565b5f6001600160a01b038316158015906105af5750826001600160a01b0316846001600160a01b03161480610df75750610df7848461068f565b806105af5750505f908152600460205260409020546001600160a01b03908116911614919050565b5f8072184f03e93ff9f4daa797ed6e38ed64bf6a1f0160401b8310610e5d5772184f03e93ff9f4daa797ed6e38ed64bf6a1f0160401b830492506040015b6d04ee2d6d415b85acef81000000008310610e89576d04ee2d6d415b85acef8100000000830492506020015b662386f26fc100008310610ea757662386f26fc10000830492506010015b6305f5e1008310610ebf576305f5e100830492506008015b6127108310610ed357612710830492506004015b60648310610ee5576064830492506002015b600a83106102ac5760010192915050565b6001600160a01b038216610f1f57604051633250574960e11b81525f600482015260240161039c565b5f610f2b83835f61078d565b90506001600160a01b0381161561041f576040516339e3563760e11b81525f600482015260240161039c565b6001600160e01b0319811681146106f6575f5ffd5b5f60208284031215610f7c575f5ffd5b813561068881610f57565b5f81518084528060208401602086015e5f602082860101526020601f19601f83011685010191505092915050565b602081525f6106886020830184610f87565b5f60208284031215610fd7575f5ffd5b5035919050565b80356001600160a01b0381168114610ff4575f5ffd5b919050565b5f5f6040838503121561100a575f5ffd5b61101383610fde565b946020939093013593505050565b5f5f5f60608486031215611033575f5ffd5b61103c84610fde565b925061104a60208501610fde565b929592945050506040919091013590565b5f6020828403121561106b575f5ffd5b61068882610fde565b5f5f60408385031215611085575f5ffd5b61108e83610fde565b9150602083013580151581146110a2575f5ffd5b809150509250929050565b634e487b7160e01b5f52604160045260245ffd5b5f5f67ffffffffffffffff8411156110db576110db6110ad565b50604051601f19601f85018116603f0116810181811067ffffffffffffffff8211171561110a5761110a6110ad565b604052838152905080828401851015611121575f5ffd5b838360208301375f60208583010152509392505050565b5f5f5f5f6080858703121561114b575f5ffd5b61115485610fde565b935061116260208601610fde565b925060408501359150606085013567ffffffffffffffff811115611184575f5ffd5b8501601f81018713611194575f5ffd5b6111a3878235602084016110c1565b91505092959194509250565b5f5f604083850312156111c0575f5ffd5b6111c983610fde565b9150602083013567ffffffffffffffff8111156111e4575f5ffd5b8301601f810185136111f4575f5ffd5b611203858235602084016110c1565b9150509250929050565b5f5f6040838503121561121e575f5ffd5b61122783610fde565b915061123560208401610fde565b90509250929050565b600181811c9082168061125257607f821691505b60208210810361127057634e487b7160e01b5f52602260045260245ffd5b50919050565b5f81518060208401855e5f93019283525090919050565b5f6105af61129b8386611276565b84611276565b5f600182016112be57634e487b7160e01b5f52601160045260245ffd5b5060010190565b6001600160a01b03858116825284166020820152604081018390526080606082018190525f906112f790830184610f87565b9695505050505050565b5f60208284031215611311575f5ffd5b815161068881610f57565b601f82111561041f57805f5260205f20601f840160051c810160208510156113415750805b601f840160051c820191505b81811015610abc575f815560010161134d565b815167ffffffffffffffff81111561137a5761137a6110ad565b61138e81611388845461123e565b8461131c565b6020601f8211600181146113c0575f83156113a95750848201515b5f19600385901b1c1916600184901b178455610abc565b5f84815260208120601f198516915b828110156113ef57878501518255602094850194600190920191016113cf565b508482101561140c57868401515f19600387901b60f8161c191681555b50505050600190811b0190555056fe697066733a2f2f516d65536a53696e4870506e6d586d73704d6a776958794e367a533445397a63636172694752336a7863615774712fa264697066735822122086f9d5f1d02f60854c777827d132f32823509bf97fc3405fc291cc052da5c0b064736f6c634300081c0033",
  "linkReferences": {},
  "deployedLinkReferences": {},
  "immutableReferences": {},
  "inputSourceName": "project/contracts/MajtDutchNFT.sol",
  "buildInfoId": "solc-0_8_28-f1213f257f9dc21d4a1a36bd972e0b3e39842c83"
}