{
  "_format": "hh3-artifact-1",
  "contractName": "NFTAuction",
  "sourceName": "contracts/NFTAuction.sol",
  "abi": [
    {
      "inputs": [],
      "stateMutability": "nonpayable",
      "type": "constructor"
    },
    {
      "inputs": [],
      "name": "InvalidInitialization",
      "type": "error"
    },
    {
      "inputs": [],
      "name": "NotInitializing",
      "type": "error"
    },
    {
      "inputs": [
        {
          "internalType": "address",
          "name": "owner",
          "type": "address"
        }
      ],
      "name": "OwnableInvalidOwner",
      "type": "error"
    },
    {
      "inputs": [
        {
          "internalType": "address",
          "name": "account",
          "type": "address"
        }
      ],
      "name": "OwnableUnauthorizedAccount",
      "type": "error"
    },
    {
      "inputs": [],
      "name": "ReentrancyGuardReentrantCall",
      "type": "error"
    },
    {
      "anonymous": false,
      "inputs": [
        {
          "indexed": true,
          "internalType": "address",
          "name": "seller",
          "type": "address"
        }
      ],
      "name": "AuctionCancelled",
      "type": "event"
    },
    {
      "anonymous": false,
      "inputs": [
        {
          "indexed": true,
          "internalType": "address",
          "name": "winner",
          "type": "address"
        },
        {
          "indexed": false,
          "internalType": "uint256",
          "name": "tokenId",
          "type": "uint256"
        }
      ],
      "name": "AuctionClaimed",
      "type": "event"
    },
    {
      "anonymous": false,
      "inputs": [
        {
          "indexed": true,
          "internalType": "address",
          "name": "winner",
          "type": "address"
        },
        {
          "indexed": false,
          "internalType": "uint256",
          "name": "amount",
          "type": "uint256"
        }
      ],
      "name": "AuctionEnded",
      "type": "event"
    },
    {
      "anonymous": false,
      "inputs": [
        {
          "indexed": true,
          "internalType": "address",
          "name": "seller",
          "type": "address"
        },
        {
          "indexed": true,
          "internalType": "address",
          "name": "nftContract",
          "type": "address"
        },
        {
          "indexed": false,
          "internalType": "uint256",
          "name": "tokenId",
          "type": "uint256"
        }
      ],
      "name": "BidNftReturn",
      "type": "event"
    },
    {
      "anonymous": false,
      "inputs": [
        {
          "indexed": true,
          "internalType": "address",
          "name": "bidder",
          "type": "address"
        },
        {
          "indexed": false,
          "internalType": "uint256",
          "name": "amount",
          "type": "uint256"
        },
        {
          "indexed": false,
          "internalType": "uint256",
          "name": "usdValue",
          "type": "uint256"
        }
      ],
      "name": "BidPlaced",
      "type": "event"
    },
    {
      "anonymous": false,
      "inputs": [
        {
          "indexed": false,
          "internalType": "uint64",
          "name": "version",
          "type": "uint64"
        }
      ],
      "name": "Initialized",
      "type": "event"
    },
    {
      "anonymous": false,
      "inputs": [
        {
          "indexed": false,
          "internalType": "address",
          "name": "operator",
          "type": "address"
        },
        {
          "indexed": false,
          "internalType": "address",
          "name": "from",
          "type": "address"
        },
        {
          "indexed": false,
          "internalType": "uint256",
          "name": "tokenId",
          "type": "uint256"
        },
        {
          "indexed": false,
          "internalType": "bytes",
          "name": "data",
          "type": "bytes"
        }
      ],
      "name": "NFTReceived",
      "type": "event"
    },
    {
      "anonymous": false,
      "inputs": [
        {
          "indexed": true,
          "internalType": "address",
          "name": "previousOwner",
          "type": "address"
        },
        {
          "indexed": true,
          "internalType": "address",
          "name": "newOwner",
          "type": "address"
        }
      ],
      "name": "OwnershipTransferred",
      "type": "event"
    },
    {
      "inputs": [],
      "name": "auctionData",
      "outputs": [
        {
          "internalType": "address",
          "name": "seller",
          "type": "address"
        },
        {
          "internalType": "address",
          "name": "nftContract",
          "type": "address"
        },
        {
          "internalType": "uint256",
          "name": "tokenId",
          "type": "uint256"
        },
        {
          "internalType": "uint256",
          "name": "startPrice",
          "type": "uint256"
        },
        {
          "internalType": "uint256",
          "name": "startTime",
          "type": "uint256"
        },
        {
          "internalType": "uint256",
          "name": "duration",
          "type": "uint256"
        },
        {
          "internalType": "uint256",
          "name": "feeRate",
          "type": "uint256"
        }
      ],
      "stateMutability": "view",
      "type": "function"
    },
    {
      "inputs": [
        {
          "internalType": "uint256",
          "name": "amount",
          "type": "uint256"
        },
        {
          "internalType": "address",
          "name": "paymentToken",
          "type": "address"
        }
      ],
      "name": "bidERC20",
      "outputs": [],
      "stateMutability": "nonpayable",
      "type": "function"
    },
    {
      "inputs": [],
      "name": "bidEth",
      "outputs": [],
      "stateMutability": "payable",
      "type": "function"
    },
    {
      "inputs": [],
      "name": "canEnd",
      "outputs": [
        {
          "internalType": "bool",
          "name": "",
          "type": "bool"
        }
      ],
      "stateMutability": "view",
      "type": "function"
    },
    {
      "inputs": [],
      "name": "cancelAuction",
      "outputs": [],
      "stateMutability": "nonpayable",
      "type": "function"
    },
    {
      "inputs": [],
      "name": "claim",
      "outputs": [],
      "stateMutability": "nonpayable",
      "type": "function"
    },
    {
      "inputs": [],
      "name": "endAuction",
      "outputs": [],
      "stateMutability": "nonpayable",
      "type": "function"
    },
    {
      "inputs": [],
      "name": "factory",
      "outputs": [
        {
          "internalType": "address",
          "name": "",
          "type": "address"
        }
      ],
      "stateMutability": "view",
      "type": "function"
    },
    {
      "inputs": [],
      "name": "getAuctionInfo",
      "outputs": [
        {
          "components": [
            {
              "internalType": "address",
              "name": "seller",
              "type": "address"
            },
            {
              "internalType": "address",
              "name": "nftContract",
              "type": "address"
            },
            {
              "internalType": "uint256",
              "name": "tokenId",
              "type": "uint256"
            },
            {
              "internalType": "uint256",
              "name": "startPrice",
              "type": "uint256"
            },
            {
              "internalType": "uint256",
              "name": "startTime",
              "type": "uint256"
            },
            {
              "internalType": "uint256",
              "name": "duration",
              "type": "uint256"
            },
            {
              "internalType": "uint256",
              "name": "feeRate",
              "type": "uint256"
            }
          ],
          "internalType": "struct NFTAuction.AuctionData",
          "name": "",
          "type": "tuple"
        },
        {
          "components": [
            {
              "internalType": "address",
              "name": "highestBidder",
              "type": "address"
            },
            {
              "internalType": "uint256",
              "name": "usdPrice",
              "type": "uint256"
            },
            {
              "internalType": "address",
              "name": "paymentToken",
              "type": "address"
            },
            {
              "internalType": "uint256",
              "name": "tokenAmount",
              "type": "uint256"
            }
          ],
          "internalType": "struct NFTAuction.NftBidInfo",
          "name": "",
          "type": "tuple"
        },
        {
          "internalType": "bool",
          "name": "",
          "type": "bool"
        },
        {
          "internalType": "bool",
          "name": "",
          "type": "bool"
        }
      ],
      "stateMutability": "view",
      "type": "function"
    },
    {
      "inputs": [
        {
          "internalType": "address",
          "name": "_seller",
          "type": "address"
        },
        {
          "internalType": "address",
          "name": "_nftContract",
          "type": "address"
        },
        {
          "internalType": "uint256",
          "name": "_tokenId",
          "type": "uint256"
        },
        {
          "internalType": "uint256",
          "name": "_startPriceUSD",
          "type": "uint256"
        },
        {
          "internalType": "uint256",
          "name": "_startTime",
          "type": "uint256"
        },
        {
          "internalType": "uint256",
          "name": "_duration",
          "type": "uint256"
        },
        {
          "internalType": "uint256",
          "name": "_feeRate",
          "type": "uint256"
        },
        {
          "internalType": "address",
          "name": "_factory",
          "type": "address"
        },
        {
          "internalType": "address",
          "name": "_priceOracle",
          "type": "address"
        }
      ],
      "name": "initialize",
      "outputs": [],
      "stateMutability": "nonpayable",
      "type": "function"
    },
    {
      "inputs": [],
      "name": "nftBidInfo",
      "outputs": [
        {
          "internalType": "address",
          "name": "highestBidder",
          "type": "address"
        },
        {
          "internalType": "uint256",
          "name": "usdPrice",
          "type": "uint256"
        },
        {
          "internalType": "address",
          "name": "paymentToken",
          "type": "address"
        },
        {
          "internalType": "uint256",
          "name": "tokenAmount",
          "type": "uint256"
        }
      ],
      "stateMutability": "view",
      "type": "function"
    },
    {
      "inputs": [
        {
          "internalType": "address",
          "name": "",
          "type": "address"
        },
        {
          "internalType": "address",
          "name": "",
          "type": "address"
        },
        {
          "internalType": "uint256",
          "name": "",
          "type": "uint256"
        },
        {
          "internalType": "bytes",
          "name": "",
          "type": "bytes"
        }
      ],
      "name": "onERC721Received",
      "outputs": [
        {
          "internalType": "bytes4",
          "name": "",
          "type": "bytes4"
        }
      ],
      "stateMutability": "nonpayable",
      "type": "function"
    },
    {
      "inputs": [],
      "name": "owner",
      "outputs": [
        {
          "internalType": "address",
          "name": "",
          "type": "address"
        }
      ],
      "stateMutability": "view",
      "type": "function"
    },
    {
      "inputs": [],
      "name": "priceOracle",
      "outputs": [
        {
          "internalType": "contract PriceOracle",
          "name": "",
          "type": "address"
        }
      ],
      "stateMutability": "view",
      "type": "function"
    },
    {
      "inputs": [],
      "name": "renounceOwnership",
      "outputs": [],
      "stateMutability": "nonpayable",
      "type": "function"
    },
    {
      "inputs": [],
      "name": "timeRemaining",
      "outputs": [
        {
          "internalType": "uint256",
          "name": "",
          "type": "uint256"
        }
      ],
      "stateMutability": "view",
      "type": "function"
    },
    {
      "inputs": [
        {
          "internalType": "address",
          "name": "newOwner",
          "type": "address"
        }
      ],
      "name": "transferOwnership",
      "outputs": [],
      "stateMutability": "nonpayable",
      "type": "function"
    }
  ],
  "bytecode": "0x6080604052348015600e575f5ffd5b5060156019565b60c9565b7ff0c57e16840df040f15088dc2f81fe391c3923bec73e23a9662efc9c229c6a00805468010000000000000000900460ff161560685760405163f92ee8a960e01b815260040160405180910390fd5b80546001600160401b039081161460c65780546001600160401b0319166001600160401b0390811782556040519081527fc7f505b2f371ae2175ee4913f4499e1f2633a7b5936321eed1cdaeb6115181d29060200160405180910390a15b50565b612a73806100d65f395ff3fe6080604052600436106100fa575f3560e01c8063a440103e11610092578063d94a350511610062578063d94a350514610355578063de5c7589146103fe578063e3cfef6014610406578063f2fde38b14610428578063fe67a54b14610447575f5ffd5b8063a440103e14610235578063abf3969e14610298578063b237b173146102bc578063c45a015514610336575f5ffd5b80635f34992a116100cd5780635f34992a146101b2578063715018a6146101d15780638da5cb5b146101e55780638fa8b79014610221575f5ffd5b806309dc510b146100fe578063150b7a021461011f5780632630c12f146101675780634e71d92d1461019e575b5f5ffd5b348015610109575f5ffd5b5061011d610118366004612584565b61045b565b005b34801561012a575f5ffd5b506101496101393660046125c2565b630a85bd0160e11b949350505050565b6040516001600160e01b031990911681526020015b60405180910390f35b348015610172575f5ffd5b50600e54610186906001600160a01b031681565b6040516001600160a01b03909116815260200161015e565b3480156101a9575f5ffd5b5061011d6109d5565b3480156101bd575f5ffd5b5061011d6101cc36600461269f565b610d0b565b3480156101dc575f5ffd5b5061011d6113f0565b3480156101f0575f5ffd5b507f9016d09d72d40fdae2fd8ceac6b6234c7706214fd39c1cd1e609a0528c199300546001600160a01b0316610186565b34801561022c575f5ffd5b5061011d611401565b348015610240575f5ffd5b50600954600a54600b54600c54610263936001600160a01b039081169392169084565b60405161015e94939291906001600160a01b039485168152602081019390935292166040820152606081019190915260800190565b3480156102a3575f5ffd5b506102ac61157a565b604051901515815260200161015e565b3480156102c7575f5ffd5b506002546003546004546005546006546007546008546102f6966001600160a01b039081169616949392919087565b604080516001600160a01b039889168152979096166020880152948601939093526060850191909152608084015260a083015260c082015260e00161015e565b348015610341575f5ffd5b50600d54610186906001600160a01b031681565b348015610360575f5ffd5b5061036961168b565b6040805185516001600160a01b0390811682526020808801518216818401528784015183850152606080890151818501526080808a01519085015260a0808a01519085015260c098890151988401989098528651821660e0840152860151610100830152918501519091166101208201529390920151610140840152151561016083015215156101808201526101a00161015e565b61011d611787565b348015610411575f5ffd5b5061041a611c64565b60405190815260200161015e565b348015610433575f5ffd5b5061011d61044236600461271e565b611ca5565b348015610452575f5ffd5b5061011d611ce2565b610463611de6565b6104986040518060400160405280601381526020017203134b222a921991810169030b6b7bab73a1d1606d1b81525083611e1d565b6104d76040518060400160405280601981526020017f6269644552433230202d207061796d656e74546f6b656e3a200000000000000081525082611e62565b604051636eb1769f60e11b81523360048201523060248201525f906001600160a01b0383169063dd62ed3e90604401602060405180830381865afa158015610521573d5f5f3e3d5ffd5b505050506040513d601f19601f82011682018060405250810190610545919061273e565b90508281101561059c5760405162461bcd60e51b815260206004820152601d60248201527f45524332303a20696e73756666696369656e7420616c6c6f77616e636500000060448201526064015b60405180910390fd5b6001600160a01b0382166105e75760405162461bcd60e51b81526020600482015260126024820152710aae6ca40c4d2c88ae8d040ccdee4408aa8960731b6044820152606401610593565b5f5460ff161561062d5760405162461bcd60e51b8152602060048201526011602482015270105d58dd1a5bdb88199a5b985b1a5e9959607a1b6044820152606401610593565b5f83116106735760405162461bcd60e51b8152602060048201526014602482015273125b9d985b1a59081d1bdad95b88185b5bdd5b9d60621b6044820152606401610593565b6040516370a0823160e01b81523360048201525f906001600160a01b038416906370a0823190602401602060405180830381865afa1580156106b7573d5f5f3e3d5ffd5b505050506040513d601f19601f820116820180604052508101906106db919061273e565b90506106ff6040518060600160405280602581526020016129b06025913982611e1d565b8381101561070c85611ea7565b60405160200161071c9190612755565b604051602081830303815290604052906107495760405162461bcd60e51b815260040161059391906127d9565b506040516323b872dd60e01b8152336004820152306024820152604481018590526001600160a01b038416906323b872dd906064016020604051808303815f875af115801561079a573d5f5f3e3d5ffd5b505050506040513d601f19601f820116820180604052508101906107be91906127eb565b6108025760405162461bcd60e51b8152602060048201526015602482015274151bdad95b881d1c985b9cd9995c8819985a5b1959605a1b6044820152606401610593565b600e54604051631634ba8f60e31b8152600481018690526001600160a01b0385811660248301525f9264e8d4a510009291169063b1a5d47890604401602060405180830381865afa158015610859573d5f5f3e3d5ffd5b505050506040513d601f19601f8201168201806040525081019061087d919061273e565b6108879190612832565b90506108ab6040518060600160405280602381526020016129686023913982611e1d565b6005548110156108f55760405162461bcd60e51b81526020600482015260156024820152744269642062656c6f7720737461727420707269636560581b6044820152606401610593565b600a54811161093c5760405162461bcd60e51b8152602060048201526013602482015272084d2c840dcdee840d0d2ced040cadcdeeaced606b1b6044820152606401610593565b60098054336001600160a01b03199182168117909255600a839055600b80549091166001600160a01b038716179055600c8690551561097d5761097d611faf565b604080518681526020810183905233917fdf8644c0a4c21ed214ce69f395675b3a5fcd1039083daea5058898de40ea3149910160405180910390a25050506109d160015f516020612a1e5f395f51905f5255565b5050565b5f5460ff16610a1a5760405162461bcd60e51b8152602060048201526011602482015270105d58dd1a5bdb881b9bdd08195b991959607a1b6044820152606401610593565b5f54610100900460ff1615610a635760405162461bcd60e51b815260206004820152600f60248201526e105b1c9958591e4818db185a5b5959608a1b6044820152606401610593565b5f805461ff0019166101001790556009546001600160a01b031615610bdc57600854600c545f9161271091610a989190612845565b610aa29190612832565b90505f81600960030154610ab6919061285c565b600954909150610ace906001600160a01b0316612225565b600b546001600160a01b0316610b1b576002546040516001600160a01b039091169082156108fc029083905f818181858888f19350505050158015610b15573d5f5f3e3d5ffd5b50610b93565b600b5460025460405163a9059cbb60e01b81526001600160a01b0391821660048201526024810184905291169063a9059cbb906044016020604051808303815f875af1158015610b6d573d5f5f3e3d5ffd5b505050506040513d601f19601f82011682018060405250810190610b9191906127eb565b505b6009546004546040519081526001600160a01b03909116907f10a4b36a41aae32780e0984ce67fee4a5a8929f404dfd68df31b645baa0189919060200160405180910390a25050565b600254610bf1906001600160a01b0316612225565b600b546001600160a01b0316610c4057600254600c546040516001600160a01b039092169181156108fc0291905f818181858888f19350505050158015610c3a573d5f5f3e3d5ffd5b50610cbc565b600b54600254600c5460405163a9059cbb60e01b81526001600160a01b039283166004820152602481019190915291169063a9059cbb906044016020604051808303815f875af1158015610c96573d5f5f3e3d5ffd5b505050506040513d601f19601f82011682018060405250810190610cba91906127eb565b505b6003546002546004546040519081526001600160a01b0392831692909116907fa92db7aafdcff9d3df395a3edc9b9593a1dbb64d4bb4f5d72a33dd83168f08b69060200160405180910390a35b565b5f610d14612359565b805490915060ff600160401b820416159067ffffffffffffffff165f81158015610d3b5750825b90505f8267ffffffffffffffff166001148015610d575750303b155b905081158015610d65575080155b15610d835760405163f92ee8a960e01b815260040160405180910390fd5b845467ffffffffffffffff191660011785558315610dad57845460ff60401b1916600160401b1785555b610dce60405180606001604052806024815260200161294460249139612383565b610e006040518060400160405280601081526020016f313637b1b5973a34b6b2b9ba30b6b81d60811b81525042611e1d565b610e2a604051806040016040528060088152602001672fb9b2b63632b91d60c11b8152508f611e62565b610e596040518060400160405280600d81526020016c2fb7333a21b7b73a3930b1ba1d60991b8152508e611e62565b610e84604051806040016040528060098152602001682fba37b5b2b724b21d60b91b8152508d611e1d565b610eb56040518060400160405280600f81526020016e2fb9ba30b93a283934b1b2aaa9a21d60891b8152508c611e1d565b610ee26040518060400160405280600b81526020016a2fb9ba30b93a2a34b6b29d60a91b8152508b611e1d565b610f0e6040518060400160405280600a8152602001692fb23ab930ba34b7b71d60b11b8152508a611e1d565b610f39604051806040016040528060098152602001682fb332b2a930ba329d60b91b81525089611e1d565b610f64604051806040016040528060098152602001682fb330b1ba37b93c9d60b91b81525088611e62565b610f936040518060400160405280600d81526020016c2fb83934b1b2a7b930b1b6329d60991b81525087611e62565b610fca6040518060400160405280601581526020017436b9b39739b2b73232b910143330b1ba37b93c949d60591b81525033611e62565b5f8b116110195760405162461bcd60e51b815260206004820152601760248201527f5374617274207072696365206d757374206265203e20300000000000000000006044820152606401610593565b6001600160a01b038e1661106f5760405162461bcd60e51b815260206004820152601a60248201527f496e76616c6964204e46542073656c6c657220616464726573730000000000006044820152606401610593565b6001600160a01b038d166110c55760405162461bcd60e51b815260206004820152601c60248201527f496e76616c6964204e465420636f6e74726163742061646472657373000000006044820152606401610593565b5f89116111145760405162461bcd60e51b815260206004820152601f60248201527f4475726174696f6e206d7573742062652067726561746572207468616e2030006044820152606401610593565b61271088111561115a5760405162461bcd60e51b815260206004820152601160248201527008ccaca40e4c2e8ca40e8dede40d0d2ced607b1b6044820152606401610593565b611163336123c6565b61116b6123d7565b6040518060e001604052808f6001600160a01b031681526020018e6001600160a01b031681526020018d81526020018c81526020018b81526020018a81526020018981525060025f820151815f015f6101000a8154816001600160a01b0302191690836001600160a01b031602179055506020820151816001015f6101000a8154816001600160a01b0302191690836001600160a01b0316021790555060408201518160020155606082015181600301556080820151816004015560a0820151816005015560c0820151816006015590505060405180608001604052805f6001600160a01b031681526020015f81526020015f6001600160a01b031681526020015f81525060095f820151815f015f6101000a8154816001600160a01b0302191690836001600160a01b03160217905550602082015181600101556040820151816002015f6101000a8154816001600160a01b0302191690836001600160a01b03160217905550606082015181600301559050505f5f5f6101000a81548160ff0219169083151502179055505f5f60016101000a81548160ff02191690831515021790555085600e5f6101000a8154816001600160a01b0302191690836001600160a01b0316021790555086600d5f6101000a8154816001600160a01b0302191690836001600160a01b0316021790555061139a6040518060400160405280601f81526020017f2d2d2d20496e697469616c697a6174696f6e20636f6d706c657465202d2d2d00815250612383565b83156113e057845460ff60401b19168555604051600181527fc7f505b2f371ae2175ee4913f4499e1f2633a7b5936321eed1cdaeb6115181d29060200160405180910390a15b5050505050505050505050505050565b6113f86123e7565b610d095f612442565b611409611de6565b6114116123e7565b6002546001600160a01b0316331461146b5760405162461bcd60e51b815260206004820152601e60248201527f4f6e6c79204e46542053656c6c65722043616e63656c2041756374696f6e00006044820152606401610593565b5f5460ff166114b45760405162461bcd60e51b8152602060048201526015602482015274105d58dd1a5bdb88105b1c9958591e48195b991959605a1b6044820152606401610593565b6009546001600160a01b031661150c5760405162461bcd60e51b815260206004820152601e60248201527f43616e6e6f742063616e63656c207769746820616374697665206269647300006044820152606401610593565b5f805460ff1916600117905560025461152d906001600160a01b0316612225565b6002546040516001600160a01b03909116907fc076344f4d1b12b00186954100df09db17044db6418a64c198cd093344c65910905f90a2610d0960015f516020612a1e5f395f51905f5255565b5f6115af60405180604001604052806012815260200171063616e456e64202d2074696d657374616d760741b81525042611e1d565b6115e96040518060400160405280601381526020017263616e456e64202d2053746172742054696d6560681b815250600260040154611e1d565b60408051808201909152601181527063616e456e64202d20456e642054496d6560781b602082015260075460065461162a92916116259161286f565b611e1d565b60408051808201909152601581527418d85b915b99080b48185d58dd1a5bdb915b991959605a1b60208201525f54611665919060ff166124b2565b5f5460ff161580156116865750600754600654611682919061286f565b4210155b905090565b6116d66040518060e001604052805f6001600160a01b031681526020015f6001600160a01b031681526020015f81526020015f81526020015f81526020015f81526020015f81525090565b5060408051608080820183525f808352602080840182905283850182905260609384018290529054845160e0810186526002546001600160a01b03908116825260035481168285015260045482880152600554828701526006548286015260075460a083015260085460c08301528651948501875260095481168552600a5493850193909352600b5490921694830194909452600c54928201929092529092909160ff808216926101009092041690565b61178f611de6565b6117cd6040518060400160405280602081526020017f2d2d2d204e465441756374696f6e2e6269644574682829206c6f6773202d2d2d815250612383565b6117ff6040518060400160405280601081526020016f313637b1b5973a34b6b2b9ba30b6b81d60811b81525042611e1d565b61183c6040518060400160405280601681526020017530bab1ba34b7b72230ba309039ba30b93a2a34b6b29d60511b815250600260040154611e1d565b6118776040518060400160405280601481526020017337333a2134b224b73337903ab9b2283934b1b29d60611b815250600960010154611e1d565b6118bb6040518060400160405280601781526020017f61756374696f6e4461746120737461727450726963653a000000000000000000815250600260030154611e1d565b6118f76040518060400160405280601581526020017430bab1ba34b7b72230ba3090323ab930ba34b7b71d60591b815250600260050154611e1d565b60065442108015906119185750600754600654611914919061286f565b4211155b6119595760405162461bcd60e51b815260206004820152601260248201527141756374696f6e204e6f742061637469766560701b6044820152606401610593565b5f5460ff161561199f5760405162461bcd60e51b8152602060048201526011602482015270105d58dd1a5bdb88199a5b985b1a5e9959607a1b6044820152606401610593565b5f34116119ee5760405162461bcd60e51b815260206004820152601860248201527f4554482073686f756c6420677265617465207468616e203000000000000000006044820152606401610593565b600e54600b54604051631634ba8f60e31b81523460048201526001600160a01b0391821660248201525f9264e8d4a5100092169063b1a5d47890604401602060405180830381865afa158015611a46573d5f5f3e3d5ffd5b505050506040513d601f19601f82011682018060405250810190611a6a919061273e565b611a749190612832565b9050611aa1604051806040016040528060098152602001683ab9b22b30b63ab29d60b91b81525082611e1d565b600554811015611aeb5760405162461bcd60e51b81526020600482015260156024820152744269642062656c6f7720737461727420707269636560581b6044820152606401610593565b600a548111611b325760405162461bcd60e51b8152602060048201526013602482015272084d2c840dcdee840d0d2ced040cadcdeeaced606b1b6044820152606401610593565b611b716040518060400160405280601a81526020017f6e6674426964496e666f2063757272656e74204269646465723a00000000000081525033611e62565b6009546001600160a01b031615611b8a57611b8a611faf565b611bc96040518060400160405280601c81526020017f4e465441756374696f6e2043757272656e742042616c616e63653a200000000081525047611e1d565b60098054336001600160a01b03199182168117909255600a839055600b8054909116905534600c81905560408051918252602082018490527fdf8644c0a4c21ed214ce69f395675b3a5fcd1039083daea5058898de40ea3149910160405180910390a2611c4d6040518060600160405280602481526020016129fa60249139612383565b50610d0960015f516020612a1e5f395f51905f5255565b5f805460ff1615611c7457505f90565b6007546006545f91611c859161286f565b9050804210611c95575f91505090565b611c9f428261285c565b91505090565b611cad6123e7565b6001600160a01b038116611cd657604051631e4fbdf760e01b81525f6004820152602401610593565b611cdf81612442565b50565b600754600654611cf2919061286f565b421015611d415760405162461bcd60e51b815260206004820152601860248201527f41756374696f6e206973207374696c6c206f6e676f696e6700000000000000006044820152606401610593565b5f5460ff1615611d8b5760405162461bcd60e51b8152602060048201526015602482015274105d58dd1a5bdb88105b1c9958591e48195b991959605a1b6044820152606401610593565b5f805460ff19166001179055611d9f6109d5565b600954600a546040519081526001600160a01b03909116907fdaec4582d5d9595688c8c98545fdd1c696d41c6aeaeb636737e84ed2f5c00eda9060200160405180910390a2565b5f516020612a1e5f395f51905f52805460011901611e1757604051633ee5aeb560e01b815260040160405180910390fd5b60029055565b6109d18282604051602401611e33929190612882565b60408051601f198184030181529190526020810180516001600160e01b0316632d839cb360e21b1790526124f3565b6109d18282604051602401611e789291906128a3565b60408051601f198184030181529190526020810180516001600160e01b031663319af33360e01b1790526124f3565b6060815f03611ecd5750506040805180820190915260018152600360fc1b602082015290565b815f5b8115611ef65780611ee0816128cc565b9150611eef9050600a83612832565b9150611ed0565b5f8167ffffffffffffffff811115611f1057611f106125ae565b6040519080825280601f01601f191660200182016040528015611f3a576020820181803683370190505b508593509050815b8315611fa657611f53600a856128e4565b611f5e90603061286f565b60f81b82611f6b836128f7565b92508281518110611f7e57611f7e61290c565b60200101906001600160f81b03191690815f1a905350611f9f600a85612832565b9350611f42565b50949350505050565b611fdc6040518060600160405280602581526020016129d5602591396009546001600160a01b0316611e62565b61200060405180606001604052806025815260200161298b60259139600c54611e1d565b6009546001600160a01b03166120515760405162461bcd60e51b8152602060048201526016602482015275496e76616c696420426964646572206164647265737360501b6044820152606401610593565b600c546120ae5760405162461bcd60e51b815260206004820152602560248201527f5061796d656e74546f6b656e20616d6f756e742056616c7565206d7573742062604482015264065203e20360dc1b6064820152608401610593565b600c54600b546001600160a01b03161561217c57600b5460095460405163a9059cbb60e01b81526001600160a01b0391821660048201526024810184905291169063a9059cbb906044016020604051808303815f875af1158015612114573d5f5f3e3d5ffd5b505050506040513d601f19601f8201168201806040525081019061213891906127eb565b611cdf5760405162461bcd60e51b8152602060048201526015602482015274115490cc8c08151c985b9cd9995c8819985a5b1959605a1b6044820152606401610593565b6009546040515f916001600160a01b03169083908381818185875af1925050503d805f81146121c6576040519150601f19603f3d011682016040523d82523d5f602084013e6121cb565b606091505b50509050806109d15760405162461bcd60e51b815260206004820152601360248201527211551208151c985b9cd9995c8819985a5b1959606a1b6044820152606401610593565b60015f516020612a1e5f395f51905f5255565b61222d6123e7565b6001600160a01b03811661227b5760405162461bcd60e51b8152602060048201526015602482015274125b9d985b1a590813919508149958da5c1a595b9d605a1b6044820152606401610593565b60035460048054604051632142170760e11b815230928101929092526001600160a01b0384811660248401526044830191909152909116906342842e0e906064015f604051808303815f87803b1580156122d3575f5ffd5b505af19250505080156122e4575060015b611cdf57600354600480546040516323b872dd60e01b815230928101929092526001600160a01b0384811660248401526044830191909152909116906323b872dd906064015f604051808303815f87803b158015612340575f5ffd5b505af1158015612352573d5f5f3e3d5ffd5b5050505050565b5f807ff0c57e16840df040f15088dc2f81fe391c3923bec73e23a9662efc9c229c6a005b92915050565b611cdf8160405160240161239791906127d9565b60408051601f198184030181529190526020810180516001600160e01b031663104c13eb60e21b1790526124f3565b6123ce6124fc565b611cdf81612521565b6123df6124fc565b610d09612529565b336124197f9016d09d72d40fdae2fd8ceac6b6234c7706214fd39c1cd1e609a0528c199300546001600160a01b031690565b6001600160a01b031614610d095760405163118cdaa760e01b8152336004820152602401610593565b7f9016d09d72d40fdae2fd8ceac6b6234c7706214fd39c1cd1e609a0528c19930080546001600160a01b031981166001600160a01b03848116918217845560405192169182907f8be0079c531659141344cd1fd0a4f28419497f9722a3daafe3b4186f6b6457e0905f90a3505050565b6109d182826040516024016124c8929190612920565b60408051601f198184030181529190526020810180516001600160e01b031663c3b5563560e01b1790525b611cdf81612531565b612504612550565b610d0957604051631afcd79f60e31b815260040160405180910390fd5b611cad6124fc565b6122126124fc565b5f6a636f6e736f6c652e6c6f6790505f5f835160208501845afa505050565b5f612559612359565b54600160401b900460ff16919050565b80356001600160a01b038116811461257f575f5ffd5b919050565b5f5f60408385031215612595575f5ffd5b823591506125a560208401612569565b90509250929050565b634e487b7160e01b5f52604160045260245ffd5b5f5f5f5f608085870312156125d5575f5ffd5b6125de85612569565b93506125ec60208601612569565b925060408501359150606085013567ffffffffffffffff81111561260e575f5ffd5b8501601f8101871361261e575f5ffd5b803567ffffffffffffffff811115612638576126386125ae565b604051601f8201601f19908116603f0116810167ffffffffffffffff81118282101715612667576126676125ae565b60405281815282820160200189101561267e575f5ffd5b816020840160208301375f6020838301015280935050505092959194509250565b5f5f5f5f5f5f5f5f5f6101208a8c0312156126b8575f5ffd5b6126c18a612569565b98506126cf60208b01612569565b975060408a0135965060608a0135955060808a0135945060a08a0135935060c08a0135925061270060e08b01612569565b915061270f6101008b01612569565b90509295985092959850929598565b5f6020828403121561272e575f5ffd5b61273782612569565b9392505050565b5f6020828403121561274e575f5ffd5b5051919050565b7f596f757220455243323020546f6b656e2062616c616e63652073686f756c642081526d03737ba103632b9b9903a3430b7160951b60208201525f82518060208501602e85015e5f9201602e0191825250919050565b5f81518084528060208401602086015e5f602082860101526020601f19601f83011685010191505092915050565b602081525f61273760208301846127ab565b5f602082840312156127fb575f5ffd5b81518015158114612737575f5ffd5b634e487b7160e01b5f52601260045260245ffd5b634e487b7160e01b5f52601160045260245ffd5b5f826128405761284061280a565b500490565b808202811582820484141761237d5761237d61281e565b8181038181111561237d5761237d61281e565b8082018082111561237d5761237d61281e565b604081525f61289460408301856127ab565b90508260208301529392505050565b604081525f6128b560408301856127ab565b905060018060a01b03831660208301529392505050565b5f600182016128dd576128dd61281e565b5060010190565b5f826128f2576128f261280a565b500690565b5f816129055761290561281e565b505f190190565b634e487b7160e01b5f52603260045260245ffd5b604081525f61293260408301856127ab565b90508215156020830152939250505056fe2d2d2d204e465441756374696f6e2e696e697469616c697a652829206c6f6773202d2d2d6269644552433230202d2045524332302063757272656e742075736456616c75653a205f726566756e6450726576696f7573426964646572202d206c61737420616d6f756e743a206269644552433230202d207573657220455243323020546f6b656e2062616c616e63653a205f726566756e6450726576696f7573426964646572202d206c617374206269646465723a202d2d2d204e465441756374696f6e2e626964457468282920636f6d706c657465202d2d2d9b779b17422d0df92223018b32b4d1fa46e071723d6817e2486d003becc55f00a26469706673582212205021bbbc3672b912071e47cfeaed437ad37cb63411eca7f85ce7cd7083d8a6c064736f6c634300081c0033",
  "linkReferences": {},
  "deployedLinkReferences": {},
  "immutableReferences": {},
  "inputSourceName": "project/contracts/NFTAuction.sol",
  "buildInfoId": "solc-0_8_28-72498ae3d7b780cc415b2e21eb7ac453b2a3f8a5"
}