{
  "_format": "hh3-artifact-1",
  "contractName": "PriceOracle",
  "sourceName": "contracts/lib/PriceOracle.sol",
  "abi": [
    {
      "inputs": [],
      "stateMutability": "nonpayable",
      "type": "constructor"
    },
    {
      "inputs": [
        {
          "internalType": "address",
          "name": "owner",
          "type": "address"
        }
      ],
      "name": "OwnableInvalidOwner",
      "type": "error"
    },
    {
      "inputs": [
        {
          "internalType": "address",
          "name": "account",
          "type": "address"
        }
      ],
      "name": "OwnableUnauthorizedAccount",
      "type": "error"
    },
    {
      "anonymous": false,
      "inputs": [
        {
          "indexed": true,
          "internalType": "address",
          "name": "previousOwner",
          "type": "address"
        },
        {
          "indexed": true,
          "internalType": "address",
          "name": "newOwner",
          "type": "address"
        }
      ],
      "name": "OwnershipTransferred",
      "type": "event"
    },
    {
      "inputs": [
        {
          "internalType": "uint256",
          "name": "amount",
          "type": "uint256"
        },
        {
          "internalType": "address",
          "name": "paymentToken",
          "type": "address"
        }
      ],
      "name": "calculateUsdValue",
      "outputs": [
        {
          "internalType": "uint256",
          "name": "",
          "type": "uint256"
        }
      ],
      "stateMutability": "view",
      "type": "function"
    },
    {
      "inputs": [
        {
          "internalType": "uint256",
          "name": "ethAmount",
          "type": "uint256"
        }
      ],
      "name": "convertEthToUsd",
      "outputs": [
        {
          "internalType": "uint256",
          "name": "",
          "type": "uint256"
        }
      ],
      "stateMutability": "view",
      "type": "function"
    },
    {
      "inputs": [
        {
          "internalType": "uint256",
          "name": "linkAmount",
          "type": "uint256"
        }
      ],
      "name": "convertLinkToUsd",
      "outputs": [
        {
          "internalType": "uint256",
          "name": "",
          "type": "uint256"
        }
      ],
      "stateMutability": "view",
      "type": "function"
    },
    {
      "inputs": [],
      "name": "getEthPrice",
      "outputs": [
        {
          "internalType": "uint256",
          "name": "",
          "type": "uint256"
        }
      ],
      "stateMutability": "view",
      "type": "function"
    },
    {
      "inputs": [],
      "name": "getLatestLinkPrice",
      "outputs": [
        {
          "internalType": "int256",
          "name": "",
          "type": "int256"
        }
      ],
      "stateMutability": "view",
      "type": "function"
    },
    {
      "inputs": [],
      "name": "getLatestPrice",
      "outputs": [
        {
          "internalType": "int256",
          "name": "",
          "type": "int256"
        }
      ],
      "stateMutability": "view",
      "type": "function"
    },
    {
      "inputs": [
        {
          "internalType": "address",
          "name": "token",
          "type": "address"
        }
      ],
      "name": "getTokenPrice",
      "outputs": [
        {
          "internalType": "uint256",
          "name": "",
          "type": "uint256"
        }
      ],
      "stateMutability": "view",
      "type": "function"
    },
    {
      "inputs": [],
      "name": "owner",
      "outputs": [
        {
          "internalType": "address",
          "name": "",
          "type": "address"
        }
      ],
      "stateMutability": "view",
      "type": "function"
    },
    {
      "inputs": [],
      "name": "renounceOwnership",
      "outputs": [],
      "stateMutability": "nonpayable",
      "type": "function"
    },
    {
      "inputs": [
        {
          "internalType": "address",
          "name": "token",
          "type": "address"
        },
        {
          "internalType": "address",
          "name": "priceFeed",
          "type": "address"
        }
      ],
      "name": "setTokenPriceFeed",
      "outputs": [],
      "stateMutability": "nonpayable",
      "type": "function"
    },
    {
      "inputs": [
        {
          "internalType": "address",
          "name": "",
          "type": "address"
        }
      ],
      "name": "tokenUsdPriceFeeds",
      "outputs": [
        {
          "internalType": "contract AggregatorV3Interface",
          "name": "",
          "type": "address"
        }
      ],
      "stateMutability": "view",
      "type": "function"
    },
    {
      "inputs": [
        {
          "internalType": "address",
          "name": "newOwner",
          "type": "address"
        }
      ],
      "name": "transferOwnership",
      "outputs": [],
      "stateMutability": "nonpayable",
      "type": "function"
    },
    {
      "inputs": [
        {
          "internalType": "address",
          "name": "aggregator",
          "type": "address"
        }
      ],
      "name": "updateAggregator",
      "outputs": [],
      "stateMutability": "nonpayable",
      "type": "function"
    }
  ],
  "bytecode": "0x608060405234801561000f575f5ffd5b50338061003557604051631e4fbdf760e01b81525f600482015260240160405180910390fd5b61003e8161010c565b50600180546001600160a01b031990811673694aa1769357215de4fac081bf1f309adc32530690811790925560028054821673c59e3633baac79493d908e63626716e204a45edf9081179091556003805483163317905560046020527f17ef568e3e12ab5b9c7254a8d58478811de00f9e6eb34345acd53bf8fd09d3ec8054831690931790925573779877a7b0d9e8603169ddbd7836e478b46247895f527fac0a8b8760764fbf8078d0de10d7ff3abf41d4e00b290cbb0910b5252612f58b8054909116909117905561015b565b5f80546001600160a01b038381166001600160a01b0319831681178455604051919092169283917f8be0079c531659141344cd1fd0a4f28419497f9722a3daafe3b4186f6b6457e09190a35050565b610f96806101685f395ff3fe608060405234801561000f575f5ffd5b50600436106100cb575f3560e01c80638da5cb5b11610088578063b1a5d47811610063578063b1a5d4781461018d578063c086381e146101a0578063d02641a0146101b3578063f2fde38b146101c6575f5ffd5b80638da5cb5b146101625780638e15f473146101725780639fe4ee471461017a575f5ffd5b80632e2cb933146100cf578063628a9c96146100f5578063674417ae1461013557806367c9b0171461014a578063715018a614610152578063759a6ab21461015a575b5f5ffd5b6100e26100dd366004610bdc565b6101d9565b6040519081526020015b60405180910390f35b61011d610103366004610c0e565b60046020525f90815260409020546001600160a01b031681565b6040516001600160a01b0390911681526020016100ec565b610148610143366004610c27565b610205565b005b6100e26102e3565b610148610426565b6100e2610439565b5f546001600160a01b031661011d565b6100e261050c565b610148610188366004610c0e565b61055f565b6100e261019b366004610c58565b6105db565b6100e26101ae366004610bdc565b6107da565b6100e26101c1366004610c0e565b6107e4565b6101486101d4366004610c0e565b61099b565b5f5f6101e3610439565b90506305f5e1006101f48285610c8d565b6101fe9190610ca4565b9392505050565b61020d6109d8565b6001600160a01b0382166102605760405162461bcd60e51b8152602060048201526015602482015274115490cc8c081859191c995cdcc81a5b9d985b1a59605a1b60448201526064015b60405180910390fd5b6001600160a01b0381166102b65760405162461bcd60e51b815260206004820152601960248201527f707269636546656564206164647265737320696e76616c6964000000000000006044820152606401610257565b6001600160a01b039182165f90815260046020526040902080546001600160a01b03191691909216179055565b5f5f60015f9054906101000a90046001600160a01b03166001600160a01b031663feaf968c6040518163ffffffff1660e01b815260040160a060405180830381865afa158015610335573d5f5f3e3d5ffd5b505050506040513d601f19601f820116820180604052508101906103599190610cdc565b5050509150505f60015f9054906101000a90046001600160a01b03166001600160a01b031663313ce5676040518163ffffffff1660e01b8152600401602060405180830381865afa1580156103b0573d5f5f3e3d5ffd5b505050506040513d601f19601f820116820180604052508101906103d49190610d2a565b90505f82136104155760405162461bcd60e51b815260206004820152600d60248201526c496e76616c696420707269636560981b6044820152606401610257565b61041f8282610a04565b9250505090565b61042e6109d8565b6104375f610a58565b565b5f5f5f60025f9054906101000a90046001600160a01b03166001600160a01b031663feaf968c6040518163ffffffff1660e01b815260040160a060405180830381865afa15801561048c573d5f5f3e3d5ffd5b505050506040513d601f19601f820116820180604052508101906104b09190610cdc565b50935050925050610e10426104c59190610d4a565b8110156105065760405162461bcd60e51b815260206004820152600f60248201526e11185d18481a5cc81d1bdbc81bdb19608a1b6044820152606401610257565b50919050565b5f5f5f60015f9054906101000a90046001600160a01b03166001600160a01b031663feaf968c6040518163ffffffff1660e01b815260040160a060405180830381865afa15801561048c573d5f5f3e3d5ffd5b6105676109d8565b6003546001600160a01b031633146105b95760405162461bcd60e51b81526020600482015260156024820152744f6e6c79204f776e65722063616e2055706461746560581b6044820152606401610257565b600180546001600160a01b0319166001600160a01b0392909216919091179055565b5f806001600160a01b0383161561065157826001600160a01b031663313ce5676040518163ffffffff1660e01b8152600401602060405180830381865afa158015610628573d5f5f3e3d5ffd5b505050506040513d601f19601f8201168201806040525081019061064c9190610d2a565b610654565b60125b905061067b604051806060016040528060278152602001610f18602791398260ff16610aa7565b6001600160a01b038316610740575f6106926102e3565b90506106b6604051806060016040528060228152602001610f3f6022913982610aa7565b6106e46040518060400160405280600c81526020016b115512080b48185b5bdd5b9d60a21b81525086610aa7565b6107186040518060400160405280601281526020017122aa241016903830bcb6b2b73a2a37b5b2b760711b81525085610af0565b61072382600a610e40565b61072d8287610c8d565b6107379190610ca4565b925050506107d4565b5f61074a846107e4565b905061076e604051806060016040528060268152602001610ef26026913982610aa7565b61079e6040518060400160405280600e81526020016d115490cc8c080b48185b5bdd5b9d60921b81525086610aa7565b6107186040518060400160405280601481526020017322a92199181016903830bcb6b2b73a2a37b5b2b760611b81525085610af0565b92915050565b5f5f6101e361050c565b6001600160a01b038082165f90815260046020526040812054909116806108425760405162461bcd60e51b8152602060048201526012602482015271141c9a58d94819995959081b9bdd081cd95d60721b6044820152606401610257565b5f816001600160a01b031663feaf968c6040518163ffffffff1660e01b815260040160a060405180830381865afa15801561087f573d5f5f3e3d5ffd5b505050506040513d601f19601f820116820180604052508101906108a39190610cdc565b5050509150505f826001600160a01b031663313ce5676040518163ffffffff1660e01b8152600401602060405180830381865afa1580156108e6573d5f5f3e3d5ffd5b505050506040513d601f19601f8201168201806040525081019061090a9190610d2a565b905061094060405180604001604052806013815260200172022a9219918102a37b2b5b710383934b1b29d1606d1b815250610b35565b61094982610b78565b5f82136109885760405162461bcd60e51b815260206004820152600d60248201526c496e76616c696420707269636560981b6044820152606401610257565b6109928282610a04565b95945050505050565b6109a36109d8565b6001600160a01b0381166109cc57604051631e4fbdf760e01b81525f6004820152602401610257565b6109d581610a58565b50565b5f546001600160a01b031633146104375760405163118cdaa760e01b8152336004820152602401610257565b5f60128260ff161115610a3857610a1c601283610e4e565b610a2790600a610e40565b610a319084610ca4565b90506107d4565b610a43826012610e4e565b610a4e90600a610e40565b610a319084610c8d565b5f80546001600160a01b038381166001600160a01b0319831681178455604051919092169283917f8be0079c531659141344cd1fd0a4f28419497f9722a3daafe3b4186f6b6457e09190a35050565b610aec8282604051602401610abd929190610e95565b60408051601f198184030181529190526020810180516001600160e01b0316632d839cb360e21b179052610bb9565b5050565b610aec8282604051602401610b06929190610eb6565b60408051601f198184030181529190526020810180516001600160e01b031663319af33360e01b179052610bb9565b6109d581604051602401610b499190610edf565b60408051601f198184030181529190526020810180516001600160e01b031663104c13eb60e21b179052610bb9565b6109d581604051602401610b8e91815260200190565b60408051601f198184030181529190526020810180516001600160e01b0316632d5b6cb960e01b1790525b6109d5815f6a636f6e736f6c652e6c6f6790505f5f835160208501845afa505050565b5f60208284031215610bec575f5ffd5b5035919050565b80356001600160a01b0381168114610c09575f5ffd5b919050565b5f60208284031215610c1e575f5ffd5b6101fe82610bf3565b5f5f60408385031215610c38575f5ffd5b610c4183610bf3565b9150610c4f60208401610bf3565b90509250929050565b5f5f60408385031215610c69575f5ffd5b82359150610c4f60208401610bf3565b634e487b7160e01b5f52601160045260245ffd5b80820281158282048414176107d4576107d4610c79565b5f82610cbe57634e487b7160e01b5f52601260045260245ffd5b500490565b805169ffffffffffffffffffff81168114610c09575f5ffd5b5f5f5f5f5f60a08688031215610cf0575f5ffd5b610cf986610cc3565b60208701516040880151606089015192975090955093509150610d1e60808701610cc3565b90509295509295909350565b5f60208284031215610d3a575f5ffd5b815160ff811681146101fe575f5ffd5b818103818111156107d4576107d4610c79565b6001815b6001841115610d9857808504811115610d7c57610d7c610c79565b6001841615610d8a57908102905b60019390931c928002610d61565b935093915050565b5f82610dae575060016107d4565b81610dba57505f6107d4565b8160018114610dd05760028114610dda57610df6565b60019150506107d4565b60ff841115610deb57610deb610c79565b50506001821b6107d4565b5060208310610133831016604e8410600b8410161715610e19575081810a6107d4565b610e255f198484610d5d565b805f1904821115610e3857610e38610c79565b029392505050565b5f6101fe60ff841683610da0565b60ff82811682821603908111156107d4576107d4610c79565b5f81518084528060208401602086015e5f602082860101526020601f19601f83011685010191505092915050565b604081525f610ea76040830185610e67565b90508260208301529392505050565b604081525f610ec86040830185610e67565b905060018060a01b03831660208301529392505050565b602081525f6101fe6020830184610e6756fe4552433230202d2063616c63756c61746555736456616c756520746f6b656e50726963653a2063616c63756c61746555736456616c7565202d20746f6b656e20646563696d616c732069733a20455448202d2063616c63756c61746555736456616c75652065746850726963653a20a2646970667358221220db45349a80bfd0f5e99e23e1485e0d7e7b05794b6c18f96c337520051fa2fd7e64736f6c634300081c0033",
  "linkReferences": {},
  "deployedLinkReferences": {},
  "immutableReferences": {},
  "inputSourceName": "project/contracts/lib/PriceOracle.sol",
  "buildInfoId": "solc-0_8_28-3d370a36041e386b947346a6b5e51a72a20c4907"
}